{
  "_format": "hh-sol-artifact-1",
  "contractName": "MaskTalisman",
  "sourceName": "contracts/MaskTalisman.sol",
  "abi": [
    {
      "inputs": [
        {
          "internalType": "string",
          "name": "_initBaseURI",
          "type": "string"
        }
      ],
      "stateMutability": "nonpayable",
      "type": "constructor"
    },
    {
      "inputs": [],
      "name": "ApprovalCallerNotOwnerNorApproved",
      "type": "error"
    },
    {
      "inputs": [],
      "name": "ApprovalQueryForNonexistentToken",
      "type": "error"
    },
    {
      "inputs": [],
      "name": "BalanceQueryForZeroAddress",
      "type": "error"
    },
    {
      "inputs": [],
      "name": "MintERC2309QuantityExceedsLimit",
      "type": "error"
    },
    {
      "inputs": [],
      "name": "MintToZeroAddress",
      "type": "error"
    },
    {
      "inputs": [],
      "name": "MintZeroQuantity",
      "type": "error"
    },
    {
      "inputs": [
        {
          "internalType": "address",
          "name": "operator",
          "type": "address"
        }
      ],
      "name": "OperatorNotAllowed",
      "type": "error"
    },
    {
      "inputs": [],
      "name": "OwnerQueryForNonexistentToken",
      "type": "error"
    },
    {
      "inputs": [],
      "name": "OwnershipNotInitializedForExtraData",
      "type": "error"
    },
    {
      "inputs": [],
      "name": "TransferCallerNotOwnerNorApproved",
      "type": "error"
    },
    {
      "inputs": [],
      "name": "TransferFromIncorrectOwner",
      "type": "error"
    },
    {
      "inputs": [],
      "name": "TransferToNonERC721ReceiverImplementer",
      "type": "error"
    },
    {
      "inputs": [],
      "name": "TransferToZeroAddress",
      "type": "error"
    },
    {
      "inputs": [],
      "name": "URIQueryForNonexistentToken",
      "type": "error"
    },
    {
      "anonymous": false,
      "inputs": [
        {
          "indexed": true,
          "internalType": "address",
          "name": "owner",
          "type": "address"
        },
        {
          "indexed": true,
          "internalType": "address",
          "name": "approved",
          "type": "address"
        },
        {
          "indexed": true,
          "internalType": "uint256",
          "name": "tokenId",
          "type": "uint256"
        }
      ],
      "name": "Approval",
      "type": "event"
    },
    {
      "anonymous": false,
      "inputs": [
        {
          "indexed": true,
          "internalType": "address",
          "name": "owner",
          "type": "address"
        },
        {
          "indexed": true,
          "internalType": "address",
          "name": "operator",
          "type": "address"
        },
        {
          "indexed": false,
          "internalType": "bool",
          "name": "approved",
          "type": "bool"
        }
      ],
      "name": "ApprovalForAll",
      "type": "event"
    },
    {
      "anonymous": false,
      "inputs": [
        {
          "indexed": true,
          "internalType": "uint256",
          "name": "fromTokenId",
          "type": "uint256"
        },
        {
          "indexed": false,
          "internalType": "uint256",
          "name": "toTokenId",
          "type": "uint256"
        },
        {
          "indexed": true,
          "internalType": "address",
          "name": "from",
          "type": "address"
        },
        {
          "indexed": true,
          "internalType": "address",
          "name": "to",
          "type": "address"
        }
      ],
      "name": "ConsecutiveTransfer",
      "type": "event"
    },
    {
      "anonymous": false,
      "inputs": [
        {
          "indexed": true,
          "internalType": "address",
          "name": "previousOwner",
          "type": "address"
        },
        {
          "indexed": true,
          "internalType": "address",
          "name": "newOwner",
          "type": "address"
        }
      ],
      "name": "OwnershipTransferred",
      "type": "event"
    },
    {
      "anonymous": false,
      "inputs": [
        {
          "indexed": true,
          "internalType": "address",
          "name": "from",
          "type": "address"
        },
        {
          "indexed": true,
          "internalType": "address",
          "name": "to",
          "type": "address"
        },
        {
          "indexed": true,
          "internalType": "uint256",
          "name": "tokenId",
          "type": "uint256"
        }
      ],
      "name": "Transfer",
      "type": "event"
    },
    {
      "inputs": [],
      "name": "MaxperWallet_PublicMint",
      "outputs": [
        {
          "internalType": "uint256",
          "name": "",
          "type": "uint256"
        }
      ],
      "stateMutability": "view",
      "type": "function"
    },
    {
      "inputs": [],
      "name": "OPERATOR_FILTER_REGISTRY",
      "outputs": [
        {
          "internalType": "contract IOperatorFilterRegistry",
          "name": "",
          "type": "address"
        }
      ],
      "stateMutability": "view",
      "type": "function"
    },
    {
      "inputs": [
        {
          "internalType": "uint256",
          "name": "tokens",
          "type": "uint256"
        }
      ],
      "name": "PublicMint",
      "outputs": [],
      "stateMutability": "payable",
      "type": "function"
    },
    {
      "inputs": [],
      "name": "PublicMintCost",
      "outputs": [
        {
          "internalType": "uint256",
          "name": "",
          "type": "uint256"
        }
      ],
      "stateMutability": "view",
      "type": "function"
    },
    {
      "inputs": [],
      "name": "PublicMint_Live",
      "outputs": [
        {
          "internalType": "bool",
          "name": "",
          "type": "bool"
        }
      ],
      "stateMutability": "view",
      "type": "function"
    },
    {
      "inputs": [
        {
          "internalType": "address",
          "name": "operator",
          "type": "address"
        },
        {
          "internalType": "uint256",
          "name": "tokenId",
          "type": "uint256"
        }
      ],
      "name": "approve",
      "outputs": [],
      "stateMutability": "payable",
      "type": "function"
    },
    {
      "inputs": [
        {
          "internalType": "address",
          "name": "owner",
          "type": "address"
        }
      ],
      "name": "balanceOf",
      "outputs": [
        {
          "internalType": "uint256",
          "name": "",
          "type": "uint256"
        }
      ],
      "stateMutability": "view",
      "type": "function"
    },
    {
      "inputs": [],
      "name": "baseExtension",
      "outputs": [
        {
          "internalType": "string",
          "name": "",
          "type": "string"
        }
      ],
      "stateMutability": "view",
      "type": "function"
    },
    {
      "inputs": [],
      "name": "baseURI",
      "outputs": [
        {
          "internalType": "string",
          "name": "",
          "type": "string"
        }
      ],
      "stateMutability": "view",
      "type": "function"
    },
    {
      "inputs": [
        {
          "internalType": "uint256",
          "name": "tokenId",
          "type": "uint256"
        }
      ],
      "name": "getApproved",
      "outputs": [
        {
          "internalType": "address",
          "name": "",
          "type": "address"
        }
      ],
      "stateMutability": "view",
      "type": "function"
    },
    {
      "inputs": [
        {
          "internalType": "uint256",
          "name": "_mintAmount",
          "type": "uint256"
        },
        {
          "internalType": "address",
          "name": "destination",
          "type": "address"
        }
      ],
      "name": "gift",
      "outputs": [],
      "stateMutability": "nonpayable",
      "type": "function"
    },
    {
      "inputs": [
        {
          "internalType": "address",
          "name": "owner",
          "type": "address"
        },
        {
          "internalType": "address",
          "name": "operator",
          "type": "address"
        }
      ],
      "name": "isApprovedForAll",
      "outputs": [
        {
          "internalType": "bool",
          "name": "",
          "type": "bool"
        }
      ],
      "stateMutability": "view",
      "type": "function"
    },
    {
      "inputs": [],
      "name": "maxSupply",
      "outputs": [
        {
          "internalType": "uint256",
          "name": "",
          "type": "uint256"
        }
      ],
      "stateMutability": "view",
      "type": "function"
    },
    {
      "inputs": [],
      "name": "name",
      "outputs": [
        {
          "internalType": "string",
          "name": "",
          "type": "string"
        }
      ],
      "stateMutability": "view",
      "type": "function"
    },
    {
      "inputs": [],
      "name": "notRevealedUri",
      "outputs": [
        {
          "internalType": "string",
          "name": "",
          "type": "string"
        }
      ],
      "stateMutability": "view",
      "type": "function"
    },
    {
      "inputs": [
        {
          "internalType": "address",
          "name": "owner",
          "type": "address"
        }
      ],
      "name": "numberMinted",
      "outputs": [
        {
          "internalType": "uint256",
          "name": "",
          "type": "uint256"
        }
      ],
      "stateMutability": "view",
      "type": "function"
    },
    {
      "inputs": [],
      "name": "owner",
      "outputs": [
        {
          "internalType": "address",
          "name": "",
          "type": "address"
        }
      ],
      "stateMutability": "view",
      "type": "function"
    },
    {
      "inputs": [
        {
          "internalType": "uint256",
          "name": "tokenId",
          "type": "uint256"
        }
      ],
      "name": "ownerOf",
      "outputs": [
        {
          "internalType": "address",
          "name": "",
          "type": "address"
        }
      ],
      "stateMutability": "view",
      "type": "function"
    },
    {
      "inputs": [
        {
          "internalType": "bool",
          "name": "_state",
          "type": "bool"
        }
      ],
      "name": "pause",
      "outputs": [],
      "stateMutability": "nonpayable",
      "type": "function"
    },
    {
      "inputs": [],
      "name": "paused",
      "outputs": [
        {
          "internalType": "bool",
          "name": "",
          "type": "bool"
        }
      ],
      "stateMutability": "view",
      "type": "function"
    },
    {
      "inputs": [],
      "name": "renounceOwnership",
      "outputs": [],
      "stateMutability": "nonpayable",
      "type": "function"
    },
    {
      "inputs": [
        {
          "internalType": "bool",
          "name": "_state",
          "type": "bool"
        }
      ],
      "name": "reveal",
      "outputs": [],
      "stateMutability": "nonpayable",
      "type": "function"
    },
    {
      "inputs": [],
      "name": "revealed",
      "outputs": [
        {
          "internalType": "bool",
          "name": "",
          "type": "bool"
        }
      ],
      "stateMutability": "view",
      "type": "function"
    },
    {
      "inputs": [
        {
          "internalType": "address",
          "name": "from",
          "type": "address"
        },
        {
          "internalType": "address",
          "name": "to",
          "type": "address"
        },
        {
          "internalType": "uint256",
          "name": "tokenId",
          "type": "uint256"
        }
      ],
      "name": "safeTransferFrom",
      "outputs": [],
      "stateMutability": "payable",
      "type": "function"
    },
    {
      "inputs": [
        {
          "internalType": "address",
          "name": "from",
          "type": "address"
        },
        {
          "internalType": "address",
          "name": "to",
          "type": "address"
        },
        {
          "internalType": "uint256",
          "name": "tokenId",
          "type": "uint256"
        },
        {
          "internalType": "bytes",
          "name": "data",
          "type": "bytes"
        }
      ],
      "name": "safeTransferFrom",
      "outputs": [],
      "stateMutability": "payable",
      "type": "function"
    },
    {
      "inputs": [
        {
          "internalType": "address",
          "name": "operator",
          "type": "address"
        },
        {
          "internalType": "bool",
          "name": "approved",
          "type": "bool"
        }
      ],
      "name": "setApprovalForAll",
      "outputs": [],
      "stateMutability": "nonpayable",
      "type": "function"
    },
    {
      "inputs": [
        {
          "internalType": "string",
          "name": "_newBaseExtension",
          "type": "string"
        }
      ],
      "name": "setBaseExtension",
      "outputs": [],
      "stateMutability": "nonpayable",
      "type": "function"
    },
    {
      "inputs": [
        {
          "internalType": "string",
          "name": "_newBaseURI",
          "type": "string"
        }
      ],
      "name": "setBaseURI",
      "outputs": [],
      "stateMutability": "nonpayable",
      "type": "function"
    },
    {
      "inputs": [
        {
          "internalType": "uint256",
          "name": "_limit",
          "type": "uint256"
        }
      ],
      "name": "setMaxperWallet_PublicMint",
      "outputs": [],
      "stateMutability": "nonpayable",
      "type": "function"
    },
    {
      "inputs": [
        {
          "internalType": "uint256",
          "name": "_newsupply",
          "type": "uint256"
        }
      ],
      "name": "setMaxsupply",
      "outputs": [],
      "stateMutability": "nonpayable",
      "type": "function"
    },
    {
      "inputs": [
        {
          "internalType": "string",
          "name": "_notRevealedURI",
          "type": "string"
        }
      ],
      "name": "setNotRevealedURI",
      "outputs": [],
      "stateMutability": "nonpayable",
      "type": "function"
    },
    {
      "inputs": [
        {
          "internalType": "uint256",
          "name": "_newCost",
          "type": "uint256"
        }
      ],
      "name": "setPublicMintCost",
      "outputs": [],
      "stateMutability": "nonpayable",
      "type": "function"
    },
    {
      "inputs": [
        {
          "internalType": "bytes4",
          "name": "interfaceId",
          "type": "bytes4"
        }
      ],
      "name": "supportsInterface",
      "outputs": [
        {
          "internalType": "bool",
          "name": "",
          "type": "bool"
        }
      ],
      "stateMutability": "view",
      "type": "function"
    },
    {
      "inputs": [],
      "name": "symbol",
      "outputs": [
        {
          "internalType": "string",
          "name": "",
          "type": "string"
        }
      ],
      "stateMutability": "view",
      "type": "function"
    },
    {
      "inputs": [
        {
          "internalType": "bool",
          "name": "_state",
          "type": "bool"
        }
      ],
      "name": "toggle_PublicMint_Live",
      "outputs": [],
      "stateMutability": "nonpayable",
      "type": "function"
    },
    {
      "inputs": [
        {
          "internalType": "uint256",
          "name": "tokenId",
          "type": "uint256"
        }
      ],
      "name": "tokenURI",
      "outputs": [
        {
          "internalType": "string",
          "name": "",
          "type": "string"
        }
      ],
      "stateMutability": "view",
      "type": "function"
    },
    {
      "inputs": [],
      "name": "totalSupply",
      "outputs": [
        {
          "internalType": "uint256",
          "name": "",
          "type": "uint256"
        }
      ],
      "stateMutability": "view",
      "type": "function"
    },
    {
      "inputs": [
        {
          "internalType": "address",
          "name": "from",
          "type": "address"
        },
        {
          "internalType": "address",
          "name": "to",
          "type": "address"
        },
        {
          "internalType": "uint256",
          "name": "tokenId",
          "type": "uint256"
        }
      ],
      "name": "transferFrom",
      "outputs": [],
      "stateMutability": "payable",
      "type": "function"
    },
    {
      "inputs": [
        {
          "internalType": "address",
          "name": "newOwner",
          "type": "address"
        }
      ],
      "name": "transferOwnership",
      "outputs": [],
      "stateMutability": "nonpayable",
      "type": "function"
    },
    {
      "inputs": [],
      "name": "withdraw",
      "outputs": [],
      "stateMutability": "payable",
      "type": "function"
    }
  ],
  "bytecode": "0x60c06040526005608090815264173539b7b760d91b60a052600b90620000269082620003e6565b50678aa39c121a270000600d5561014f600e556014600f556010805462ffffff1916620101011790553480156200005c57600080fd5b5060405162002506380380620025068339810160408190526200007f91620004b2565b733cc6cdda760b79bafa08df41ecfa224f810dceb660016040518060400160405280600c81526020016b26b0b9b5aa30b634b9b6b0b760a11b8152506040518060400160405280600c81526020016b26b0b9b5aa30b634b9b6b0b760a11b8152508160029081620000f19190620003e6565b506003620001008282620003e6565b5050600160005550620001133362000272565b60016009556daaeb6d7670e522a718067333cd4e3b156200025d578015620001ab57604051633e9f1edf60e11b81523060048201526001600160a01b03831660248201526daaeb6d7670e522a718067333cd4e90637d3e3dbe906044015b600060405180830381600087803b1580156200018c57600080fd5b505af1158015620001a1573d6000803e3d6000fd5b505050506200025d565b6001600160a01b03821615620001fc5760405163a0af290360e01b81523060048201526001600160a01b03831660248201526daaeb6d7670e522a718067333cd4e9063a0af29039060440162000171565b604051632210724360e11b81523060048201526daaeb6d7670e522a718067333cd4e90634420e48690602401600060405180830381600087803b1580156200024357600080fd5b505af115801562000258573d6000803e3d6000fd5b505050505b506200026b905081620002c4565b5062000587565b600880546001600160a01b038381166001600160a01b0319831681179093556040519116919082907f8be0079c531659141344cd1fd0a4f28419497f9722a3daafe3b4186f6b6457e090600090a35050565b620002ce620002e0565b600a620002dc8282620003e6565b5050565b6008546001600160a01b031633146200033f5760405162461bcd60e51b815260206004820181905260248201527f4f776e61626c653a2063616c6c6572206973206e6f7420746865206f776e6572604482015260640160405180910390fd5b565b634e487b7160e01b600052604160045260246000fd5b600181811c908216806200036c57607f821691505b6020821081036200038d57634e487b7160e01b600052602260045260246000fd5b50919050565b601f821115620003e157600081815260208120601f850160051c81016020861015620003bc5750805b601f850160051c820191505b81811015620003dd57828155600101620003c8565b5050505b505050565b81516001600160401b0381111562000402576200040262000341565b6200041a8162000413845462000357565b8462000393565b602080601f831160018114620004525760008415620004395750858301515b600019600386901b1c1916600185901b178555620003dd565b600085815260208120601f198616915b82811015620004835788860151825594840194600190910190840162000462565b5085821015620004a25787850151600019600388901b60f8161c191681555b5050505050600190811b01905550565b60006020808385031215620004c657600080fd5b82516001600160401b0380821115620004de57600080fd5b818501915085601f830112620004f357600080fd5b81518181111562000508576200050862000341565b604051601f8201601f19908116603f0116810190838211818310171562000533576200053362000341565b8160405282815288868487010111156200054c57600080fd5b600093505b8284101562000570578484018601518185018701529285019262000551565b600086848301015280965050505050505092915050565b611f6f80620005976000396000f3fe60806040526004361061023b5760003560e01c80636c8b88651161012e578063b88d4fde116100ab578063da3ef23f1161006f578063da3ef23f14610623578063dc33e68114610643578063e985e9c514610663578063f2c4ce1e14610683578063f2fde38b146106a357600080fd5b8063b88d4fde146105a5578063c6682862146105b8578063c87b56dd146105cd578063d0c62272146105ed578063d5abeb011461060d57600080fd5b80638da5cb5b116100f25780638da5cb5b1461051f578063940cd05b1461053d57806395d89b411461055d5780639fb17e3414610572578063a22cb4651461058557600080fd5b80636c8b88651461048a57806370a08231146104aa578063715018a6146104ca57806380eae578146104df57806383a076be146104ff57600080fd5b80633ccfd60b116101bc57806355f804b31161018057806355f804b3146104055780635c975abb14610425578063613cb4691461043f5780636352211e146104555780636c0360eb1461047557600080fd5b80633ccfd60b1461039357806341f434341461039b57806342842e0e146103bd5780634ae6157d146103d057806351830227146103e657600080fd5b8063095ea7b311610203578063095ea7b314610306578063149835a01461031957806318160ddd146103395780631dc233f41461036057806323b872dd1461038057600080fd5b806301ffc9a71461024057806302329a291461027557806306fdde0314610297578063081812fc146102b9578063081c8c44146102f1575b600080fd5b34801561024c57600080fd5b5061026061025b366004611963565b6106c3565b60405190151581526020015b60405180910390f35b34801561028157600080fd5b5061029561029036600461198e565b610715565b005b3480156102a357600080fd5b506102ac610730565b60405161026c91906119fb565b3480156102c557600080fd5b506102d96102d4366004611a0e565b6107c2565b6040516001600160a01b03909116815260200161026c565b3480156102fd57600080fd5b506102ac610806565b610295610314366004611a43565b610894565b34801561032557600080fd5b50610295610334366004611a0e565b6108ad565b34801561034557600080fd5b5060015460005403600019015b60405190815260200161026c565b34801561036c57600080fd5b506010546102609062010000900460ff1681565b61029561038e366004611a6d565b6108ba565b6102956108e5565b3480156103a757600080fd5b506102d96daaeb6d7670e522a718067333cd4e81565b6102956103cb366004611a6d565b610957565b3480156103dc57600080fd5b50610352600f5481565b3480156103f257600080fd5b5060105461026090610100900460ff1681565b34801561041157600080fd5b50610295610420366004611b35565b61097c565b34801561043157600080fd5b506010546102609060ff1681565b34801561044b57600080fd5b50610352600d5481565b34801561046157600080fd5b506102d9610470366004611a0e565b610994565b34801561048157600080fd5b506102ac61099f565b34801561049657600080fd5b506102956104a536600461198e565b6109ac565b3480156104b657600080fd5b506103526104c5366004611b7e565b6109d0565b3480156104d657600080fd5b50610295610a1f565b3480156104eb57600080fd5b506102956104fa366004611a0e565b610a31565b34801561050b57600080fd5b5061029561051a366004611b99565b610a3e565b34801561052b57600080fd5b506008546001600160a01b03166102d9565b34801561054957600080fd5b5061029561055836600461198e565b610ac5565b34801561056957600080fd5b506102ac610ae7565b610295610580366004611a0e565b610af6565b34801561059157600080fd5b506102956105a0366004611bc5565b610d3c565b6102956105b3366004611bfc565b610d50565b3480156105c457600080fd5b506102ac610d7d565b3480156105d957600080fd5b506102ac6105e8366004611a0e565b610d8a565b3480156105f957600080fd5b50610295610608366004611a0e565b610eff565b34801561061957600080fd5b50610352600e5481565b34801561062f57600080fd5b5061029561063e366004611b35565b610f0c565b34801561064f57600080fd5b5061035261065e366004611b7e565b610f20565b34801561066f57600080fd5b5061026061067e366004611c78565b610f4b565b34801561068f57600080fd5b5061029561069e366004611b35565b610f79565b3480156106af57600080fd5b506102956106be366004611b7e565b610f8d565b60006301ffc9a760e01b6001600160e01b0319831614806106f457506380ac58cd60e01b6001600160e01b03198316145b8061070f5750635b5e139f60e01b6001600160e01b03198316145b92915050565b61071d611003565b6010805460ff1916911515919091179055565b60606002805461073f90611ca2565b80601f016020809104026020016040519081016040528092919081815260200182805461076b90611ca2565b80156107b85780601f1061078d576101008083540402835291602001916107b8565b820191906000526020600020905b81548152906001019060200180831161079b57829003601f168201915b5050505050905090565b60006107cd8261105d565b6107ea576040516333d1c03960e21b815260040160405180910390fd5b506000908152600660205260409020546001600160a01b031690565b600c805461081390611ca2565b80601f016020809104026020016040519081016040528092919081815260200182805461083f90611ca2565b801561088c5780601f106108615761010080835404028352916020019161088c565b820191906000526020600020905b81548152906001019060200180831161086f57829003601f168201915b505050505081565b8161089e81611092565b6108a8838361114b565b505050565b6108b5611003565b600e55565b826001600160a01b03811633146108d4576108d433611092565b6108df8484846111eb565b50505050565b6108ed611003565b6108f5611384565b604051600090339047908381818185875af1925050503d8060008114610937576040519150601f19603f3d011682016040523d82523d6000602084013e61093c565b606091505b505090508061094a57600080fd5b506109556001600955565b565b826001600160a01b03811633146109715761097133611092565b6108df8484846113dd565b610984611003565b600a6109908282611d22565b5050565b600061070f826113f8565b600a805461081390611ca2565b6109b4611003565b60108054911515620100000262ff000019909216919091179055565b60006001600160a01b0382166109f9576040516323d3ad8160e21b815260040160405180910390fd5b506001600160a01b031660009081526005602052604090205467ffffffffffffffff1690565b610a27611003565b6109556000611467565b610a39611003565b600d55565b610a46611003565b610a4e611384565b6000610a636001546000546000199190030190565b600e54909150610a738483611df8565b1115610ab05760405162461bcd60e51b815260206004820152600760248201526614dbdb191bdd5d60ca1b60448201526064015b60405180910390fd5b610aba82846114b9565b506109906001600955565b610acd611003565b601080549115156101000261ff0019909216919091179055565b60606003805461073f90611ca2565b610afe611384565b60105460ff1615610b515760405162461bcd60e51b815260206004820152601760248201527f6f6f707320636f6e7472616374206973207061757365640000000000000000006044820152606401610aa7565b60105462010000900460ff16610ba95760405162461bcd60e51b815260206004820152601760248201527f53616c65204861736e27742073746172746564207965740000000000000000006044820152606401610aa7565b6000610bbe6001546000546000199190030190565b905060008211610c105760405162461bcd60e51b815260206004820152601b60248201527f6e65656420746f206d696e74206174206c656173742031204e465400000000006044820152606401610aa7565b600e54610c1d8383611df8565b1115610c585760405162461bcd60e51b815260206004820152600a60248201526915d94814dbdb191bdd5d60b21b6044820152606401610aa7565b600f5433600090815260056020526040908190205484911c67ffffffffffffffff16610c849190611df8565b1115610cd25760405162461bcd60e51b815260206004820152601d60248201527f204d6178204e465473205065722057616c6c65742065786365656465640000006044820152606401610aa7565b81600d54610ce09190611e0b565b341015610d245760405162461bcd60e51b8152602060048201526012602482015271696e73756666696369656e742066756e647360701b6044820152606401610aa7565b610d2e33836114b9565b50610d396001600955565b50565b81610d4681611092565b6108a883836114d3565b836001600160a01b0381163314610d6a57610d6a33611092565b610d768585858561153f565b5050505050565b600b805461081390611ca2565b6060610d958261105d565b610dfa5760405162461bcd60e51b815260206004820152603060248201527f455243373231414d657461646174613a2055524920717565727920666f72206e60448201526f37b732bc34b9ba32b73a103a37b5b2b760811b6064820152608401610aa7565b601054610100900460ff161515600003610ea057600c8054610e1b90611ca2565b80601f0160208091040260200160405190810160405280929190818152602001828054610e4790611ca2565b8015610e945780601f10610e6957610100808354040283529160200191610e94565b820191906000526020600020905b815481529060010190602001808311610e7757829003601f168201915b50505050509050919050565b6000610eaa611583565b90506000815111610eca5760405180602001604052806000815250610ef8565b80610ed484611592565b600b604051602001610ee893929190611e22565b6040516020818303038152906040525b9392505050565b610f07611003565b600f55565b610f14611003565b600b6109908282611d22565b6001600160a01b0381166000908152600560205260408082205467ffffffffffffffff911c1661070f565b6001600160a01b03918216600090815260076020908152604080832093909416825291909152205460ff1690565b610f81611003565b600c6109908282611d22565b610f95611003565b6001600160a01b038116610ffa5760405162461bcd60e51b815260206004820152602660248201527f4f776e61626c653a206e6577206f776e657220697320746865207a65726f206160448201526564647265737360d01b6064820152608401610aa7565b610d3981611467565b6008546001600160a01b031633146109555760405162461bcd60e51b815260206004820181905260248201527f4f776e61626c653a2063616c6c6572206973206e6f7420746865206f776e65726044820152606401610aa7565b600081600111158015611071575060005482105b801561070f575050600090815260046020526040902054600160e01b161590565b6daaeb6d7670e522a718067333cd4e3b15610d3957604051633185c44d60e21b81523060048201526001600160a01b03821660248201526daaeb6d7670e522a718067333cd4e9063c617113490604401602060405180830381865afa1580156110ff573d6000803e3d6000fd5b505050506040513d601f19601f820116820180604052508101906111239190611ec2565b610d3957604051633b79c77360e21b81526001600160a01b0382166004820152602401610aa7565b600061115682610994565b9050336001600160a01b0382161461118f576111728133610f4b565b61118f576040516367d9dca160e11b815260040160405180910390fd5b60008281526006602052604080822080546001600160a01b0319166001600160a01b0387811691821790925591518593918516917f8c5be1e5ebec7d5bd14f71427d1e84f3dd0314c0f7b2291e5b200ac8c7c3b92591a4505050565b60006111f6826113f8565b9050836001600160a01b0316816001600160a01b0316146112295760405162a1148160e81b815260040160405180910390fd5b60008281526006602052604090208054338082146001600160a01b03881690911417611276576112598633610f4b565b61127657604051632ce44b5f60e11b815260040160405180910390fd5b6001600160a01b03851661129d57604051633a954ecd60e21b815260040160405180910390fd5b80156112a857600082555b6001600160a01b038681166000908152600560205260408082208054600019019055918716808252919020805460010190554260a01b17600160e11b17600085815260046020526040812091909155600160e11b8416900361133a576001840160008181526004602052604081205490036113385760005481146113385760008181526004602052604090208490555b505b83856001600160a01b0316876001600160a01b03167fddf252ad1be2c89b69c2b068fc378daa952ba7f163c4a11628f55a4df523b3ef60405160405180910390a45b505050505050565b6002600954036113d65760405162461bcd60e51b815260206004820152601f60248201527f5265656e7472616e637947756172643a207265656e7472616e742063616c6c006044820152606401610aa7565b6002600955565b6108a883838360405180602001604052806000815250610d50565b6000818060011161144e5760005481101561144e5760008181526004602052604081205490600160e01b8216900361144c575b80600003610ef857506000190160008181526004602052604090205461142b565b505b604051636f96cda160e11b815260040160405180910390fd5b600880546001600160a01b038381166001600160a01b0319831681179093556040519116919082907f8be0079c531659141344cd1fd0a4f28419497f9722a3daafe3b4186f6b6457e090600090a35050565b610990828260405180602001604052806000815250611625565b3360008181526007602090815260408083206001600160a01b03871680855290835292819020805460ff191686151590811790915590519081529192917f17307eab39ab6107e8899845ad3d59bd9653f200f220920489ca2b5937696c31910160405180910390a35050565b61154a8484846108ba565b6001600160a01b0383163b156108df576115668484848461168b565b6108df576040516368d2bf6b60e11b815260040160405180910390fd5b6060600a805461073f90611ca2565b6060600061159f83611777565b600101905060008167ffffffffffffffff8111156115bf576115bf611aa9565b6040519080825280601f01601f1916602001820160405280156115e9576020820181803683370190505b5090508181016020015b600019016f181899199a1a9b1b9c1cb0b131b232b360811b600a86061a8153600a85049450846115f357509392505050565b61162f838361184f565b6001600160a01b0383163b156108a8576000548281035b611659600086838060010194508661168b565b611676576040516368d2bf6b60e11b815260040160405180910390fd5b818110611646578160005414610d7657600080fd5b604051630a85bd0160e11b81526000906001600160a01b0385169063150b7a02906116c0903390899088908890600401611edf565b6020604051808303816000875af19250505080156116fb575060408051601f3d908101601f191682019092526116f891810190611f1c565b60015b611759573d808015611729576040519150601f19603f3d011682016040523d82523d6000602084013e61172e565b606091505b508051600003611751576040516368d2bf6b60e11b815260040160405180910390fd5b805181602001fd5b6001600160e01b031916630a85bd0160e11b1490505b949350505050565b60008072184f03e93ff9f4daa797ed6e38ed64bf6a1f0160401b83106117b65772184f03e93ff9f4daa797ed6e38ed64bf6a1f0160401b830492506040015b6d04ee2d6d415b85acef810000000083106117e2576d04ee2d6d415b85acef8100000000830492506020015b662386f26fc10000831061180057662386f26fc10000830492506010015b6305f5e1008310611818576305f5e100830492506008015b612710831061182c57612710830492506004015b6064831061183e576064830492506002015b600a831061070f5760010192915050565b60008054908290036118745760405163b562e8dd60e01b815260040160405180910390fd5b6001600160a01b03831660008181526005602090815260408083208054680100000000000000018802019055848352600490915281206001851460e11b4260a01b178317905582840190839083907fddf252ad1be2c89b69c2b068fc378daa952ba7f163c4a11628f55a4df523b3ef8180a4600183015b81811461192357808360007fddf252ad1be2c89b69c2b068fc378daa952ba7f163c4a11628f55a4df523b3ef600080a46001016118eb565b508160000361194457604051622e076360e81b815260040160405180910390fd5b60005550505050565b6001600160e01b031981168114610d3957600080fd5b60006020828403121561197557600080fd5b8135610ef88161194d565b8015158114610d3957600080fd5b6000602082840312156119a057600080fd5b8135610ef881611980565b60005b838110156119c65781810151838201526020016119ae565b50506000910152565b600081518084526119e78160208601602086016119ab565b601f01601f19169290920160200192915050565b602081526000610ef860208301846119cf565b600060208284031215611a2057600080fd5b5035919050565b80356001600160a01b0381168114611a3e57600080fd5b919050565b60008060408385031215611a5657600080fd5b611a5f83611a27565b946020939093013593505050565b600080600060608486031215611a8257600080fd5b611a8b84611a27565b9250611a9960208501611a27565b9150604084013590509250925092565b634e487b7160e01b600052604160045260246000fd5b600067ffffffffffffffff80841115611ada57611ada611aa9565b604051601f8501601f19908116603f01168101908282118183101715611b0257611b02611aa9565b81604052809350858152868686011115611b1b57600080fd5b858560208301376000602087830101525050509392505050565b600060208284031215611b4757600080fd5b813567ffffffffffffffff811115611b5e57600080fd5b8201601f81018413611b6f57600080fd5b61176f84823560208401611abf565b600060208284031215611b9057600080fd5b610ef882611a27565b60008060408385031215611bac57600080fd5b82359150611bbc60208401611a27565b90509250929050565b60008060408385031215611bd857600080fd5b611be183611a27565b91506020830135611bf181611980565b809150509250929050565b60008060008060808587031215611c1257600080fd5b611c1b85611a27565b9350611c2960208601611a27565b925060408501359150606085013567ffffffffffffffff811115611c4c57600080fd5b8501601f81018713611c5d57600080fd5b611c6c87823560208401611abf565b91505092959194509250565b60008060408385031215611c8b57600080fd5b611c9483611a27565b9150611bbc60208401611a27565b600181811c90821680611cb657607f821691505b602082108103611cd657634e487b7160e01b600052602260045260246000fd5b50919050565b601f8211156108a857600081815260208120601f850160051c81016020861015611d035750805b601f850160051c820191505b8181101561137c57828155600101611d0f565b815167ffffffffffffffff811115611d3c57611d3c611aa9565b611d5081611d4a8454611ca2565b84611cdc565b602080601f831160018114611d855760008415611d6d5750858301515b600019600386901b1c1916600185901b17855561137c565b600085815260208120601f198616915b82811015611db457888601518255948401946001909101908401611d95565b5085821015611dd25787850151600019600388901b60f8161c191681555b5050505050600190811b01905550565b634e487b7160e01b600052601160045260246000fd5b8082018082111561070f5761070f611de2565b808202811582820484141761070f5761070f611de2565b600084516020611e358285838a016119ab565b855191840191611e488184848a016119ab565b8554920191600090611e5981611ca2565b60018281168015611e715760018114611e8657611eb2565b60ff1984168752821515830287019450611eb2565b896000528560002060005b84811015611eaa57815489820152908301908701611e91565b505082870194505b50929a9950505050505050505050565b600060208284031215611ed457600080fd5b8151610ef881611980565b6001600160a01b0385811682528416602082015260408101839052608060608201819052600090611f12908301846119cf565b9695505050505050565b600060208284031215611f2e57600080fd5b8151610ef88161194d56fea264697066735822122060c6b6461a59aeedad73629920de8509c8334f02d8b8e9e7b3a93c59eafa967b64736f6c63430008110033",
  "linkReferences": {},
  "deployedLinkReferences": {}
}