{
  "_format": "hh-sol-artifact-1",
  "contractName": "Baggies",
  "sourceName": "contracts/Baggies.sol",
  "abi": [
    {
      "inputs": [
        {
          "internalType": "string",
          "name": "_initBaseURI",
          "type": "string"
        }
      ],
      "stateMutability": "nonpayable",
      "type": "constructor"
    },
    {
      "inputs": [],
      "name": "ApprovalCallerNotOwnerNorApproved",
      "type": "error"
    },
    {
      "inputs": [],
      "name": "ApprovalQueryForNonexistentToken",
      "type": "error"
    },
    {
      "inputs": [],
      "name": "BalanceQueryForZeroAddress",
      "type": "error"
    },
    {
      "inputs": [],
      "name": "MintERC2309QuantityExceedsLimit",
      "type": "error"
    },
    {
      "inputs": [],
      "name": "MintToZeroAddress",
      "type": "error"
    },
    {
      "inputs": [],
      "name": "MintZeroQuantity",
      "type": "error"
    },
    {
      "inputs": [
        {
          "internalType": "address",
          "name": "operator",
          "type": "address"
        }
      ],
      "name": "OperatorNotAllowed",
      "type": "error"
    },
    {
      "inputs": [],
      "name": "OwnerQueryForNonexistentToken",
      "type": "error"
    },
    {
      "inputs": [],
      "name": "OwnershipNotInitializedForExtraData",
      "type": "error"
    },
    {
      "inputs": [],
      "name": "TransferCallerNotOwnerNorApproved",
      "type": "error"
    },
    {
      "inputs": [],
      "name": "TransferFromIncorrectOwner",
      "type": "error"
    },
    {
      "inputs": [],
      "name": "TransferToNonERC721ReceiverImplementer",
      "type": "error"
    },
    {
      "inputs": [],
      "name": "TransferToZeroAddress",
      "type": "error"
    },
    {
      "inputs": [],
      "name": "URIQueryForNonexistentToken",
      "type": "error"
    },
    {
      "anonymous": false,
      "inputs": [
        {
          "indexed": true,
          "internalType": "address",
          "name": "owner",
          "type": "address"
        },
        {
          "indexed": true,
          "internalType": "address",
          "name": "approved",
          "type": "address"
        },
        {
          "indexed": true,
          "internalType": "uint256",
          "name": "tokenId",
          "type": "uint256"
        }
      ],
      "name": "Approval",
      "type": "event"
    },
    {
      "anonymous": false,
      "inputs": [
        {
          "indexed": true,
          "internalType": "address",
          "name": "owner",
          "type": "address"
        },
        {
          "indexed": true,
          "internalType": "address",
          "name": "operator",
          "type": "address"
        },
        {
          "indexed": false,
          "internalType": "bool",
          "name": "approved",
          "type": "bool"
        }
      ],
      "name": "ApprovalForAll",
      "type": "event"
    },
    {
      "anonymous": false,
      "inputs": [
        {
          "indexed": true,
          "internalType": "uint256",
          "name": "fromTokenId",
          "type": "uint256"
        },
        {
          "indexed": false,
          "internalType": "uint256",
          "name": "toTokenId",
          "type": "uint256"
        },
        {
          "indexed": true,
          "internalType": "address",
          "name": "from",
          "type": "address"
        },
        {
          "indexed": true,
          "internalType": "address",
          "name": "to",
          "type": "address"
        }
      ],
      "name": "ConsecutiveTransfer",
      "type": "event"
    },
    {
      "anonymous": false,
      "inputs": [
        {
          "indexed": true,
          "internalType": "address",
          "name": "previousOwner",
          "type": "address"
        },
        {
          "indexed": true,
          "internalType": "address",
          "name": "newOwner",
          "type": "address"
        }
      ],
      "name": "OwnershipTransferred",
      "type": "event"
    },
    {
      "anonymous": false,
      "inputs": [
        {
          "indexed": true,
          "internalType": "address",
          "name": "from",
          "type": "address"
        },
        {
          "indexed": true,
          "internalType": "address",
          "name": "to",
          "type": "address"
        },
        {
          "indexed": true,
          "internalType": "uint256",
          "name": "tokenId",
          "type": "uint256"
        }
      ],
      "name": "Transfer",
      "type": "event"
    },
    {
      "inputs": [],
      "name": "MaxperWallet_Free",
      "outputs": [
        {
          "internalType": "uint256",
          "name": "",
          "type": "uint256"
        }
      ],
      "stateMutability": "view",
      "type": "function"
    },
    {
      "inputs": [],
      "name": "MaxperWallet_PublicMint",
      "outputs": [
        {
          "internalType": "uint256",
          "name": "",
          "type": "uint256"
        }
      ],
      "stateMutability": "view",
      "type": "function"
    },
    {
      "inputs": [],
      "name": "MaxperWallet_SpecialMint",
      "outputs": [
        {
          "internalType": "uint256",
          "name": "",
          "type": "uint256"
        }
      ],
      "stateMutability": "view",
      "type": "function"
    },
    {
      "inputs": [],
      "name": "OPERATOR_FILTER_REGISTRY",
      "outputs": [
        {
          "internalType": "contract IOperatorFilterRegistry",
          "name": "",
          "type": "address"
        }
      ],
      "stateMutability": "view",
      "type": "function"
    },
    {
      "inputs": [
        {
          "internalType": "uint256",
          "name": "tokens",
          "type": "uint256"
        }
      ],
      "name": "PublicMint",
      "outputs": [],
      "stateMutability": "payable",
      "type": "function"
    },
    {
      "inputs": [],
      "name": "PublicMintCost",
      "outputs": [
        {
          "internalType": "uint256",
          "name": "",
          "type": "uint256"
        }
      ],
      "stateMutability": "view",
      "type": "function"
    },
    {
      "inputs": [],
      "name": "PublicMint_Live",
      "outputs": [
        {
          "internalType": "bool",
          "name": "",
          "type": "bool"
        }
      ],
      "stateMutability": "view",
      "type": "function"
    },
    {
      "inputs": [],
      "name": "WhitelistMint_Live",
      "outputs": [
        {
          "internalType": "bool",
          "name": "",
          "type": "bool"
        }
      ],
      "stateMutability": "view",
      "type": "function"
    },
    {
      "inputs": [
        {
          "internalType": "uint256",
          "name": "tokens",
          "type": "uint256"
        },
        {
          "internalType": "bytes32[]",
          "name": "merkleProof",
          "type": "bytes32[]"
        }
      ],
      "name": "WhitelistedMint",
      "outputs": [],
      "stateMutability": "nonpayable",
      "type": "function"
    },
    {
      "inputs": [
        {
          "internalType": "address",
          "name": "operator",
          "type": "address"
        },
        {
          "internalType": "uint256",
          "name": "tokenId",
          "type": "uint256"
        }
      ],
      "name": "approve",
      "outputs": [],
      "stateMutability": "payable",
      "type": "function"
    },
    {
      "inputs": [
        {
          "internalType": "address",
          "name": "owner",
          "type": "address"
        }
      ],
      "name": "balanceOf",
      "outputs": [
        {
          "internalType": "uint256",
          "name": "",
          "type": "uint256"
        }
      ],
      "stateMutability": "view",
      "type": "function"
    },
    {
      "inputs": [],
      "name": "baseExtension",
      "outputs": [
        {
          "internalType": "string",
          "name": "",
          "type": "string"
        }
      ],
      "stateMutability": "view",
      "type": "function"
    },
    {
      "inputs": [],
      "name": "baseURI",
      "outputs": [
        {
          "internalType": "string",
          "name": "",
          "type": "string"
        }
      ],
      "stateMutability": "view",
      "type": "function"
    },
    {
      "inputs": [
        {
          "internalType": "uint256",
          "name": "tokenId",
          "type": "uint256"
        }
      ],
      "name": "getApproved",
      "outputs": [
        {
          "internalType": "address",
          "name": "",
          "type": "address"
        }
      ],
      "stateMutability": "view",
      "type": "function"
    },
    {
      "inputs": [
        {
          "internalType": "address",
          "name": "owner",
          "type": "address"
        }
      ],
      "name": "getWalletSpecialNFTClaimDate",
      "outputs": [
        {
          "internalType": "uint256",
          "name": "",
          "type": "uint256"
        }
      ],
      "stateMutability": "view",
      "type": "function"
    },
    {
      "inputs": [
        {
          "internalType": "uint256",
          "name": "_mintAmount",
          "type": "uint256"
        },
        {
          "internalType": "address",
          "name": "destination",
          "type": "address"
        }
      ],
      "name": "gift",
      "outputs": [],
      "stateMutability": "nonpayable",
      "type": "function"
    },
    {
      "inputs": [
        {
          "internalType": "address",
          "name": "owner",
          "type": "address"
        },
        {
          "internalType": "address",
          "name": "operator",
          "type": "address"
        }
      ],
      "name": "isApprovedForAll",
      "outputs": [
        {
          "internalType": "bool",
          "name": "",
          "type": "bool"
        }
      ],
      "stateMutability": "view",
      "type": "function"
    },
    {
      "inputs": [],
      "name": "maxSupply",
      "outputs": [
        {
          "internalType": "uint256",
          "name": "",
          "type": "uint256"
        }
      ],
      "stateMutability": "view",
      "type": "function"
    },
    {
      "inputs": [],
      "name": "merkleRoot_WL",
      "outputs": [
        {
          "internalType": "bytes32",
          "name": "",
          "type": "bytes32"
        }
      ],
      "stateMutability": "view",
      "type": "function"
    },
    {
      "inputs": [
        {
          "internalType": "uint256",
          "name": "tokens",
          "type": "uint256"
        }
      ],
      "name": "mintSpecialNFT",
      "outputs": [],
      "stateMutability": "nonpayable",
      "type": "function"
    },
    {
      "inputs": [],
      "name": "name",
      "outputs": [
        {
          "internalType": "string",
          "name": "",
          "type": "string"
        }
      ],
      "stateMutability": "view",
      "type": "function"
    },
    {
      "inputs": [],
      "name": "notRevealedUri",
      "outputs": [
        {
          "internalType": "string",
          "name": "",
          "type": "string"
        }
      ],
      "stateMutability": "view",
      "type": "function"
    },
    {
      "inputs": [
        {
          "internalType": "address",
          "name": "owner",
          "type": "address"
        }
      ],
      "name": "numberMinted",
      "outputs": [
        {
          "internalType": "uint256",
          "name": "",
          "type": "uint256"
        }
      ],
      "stateMutability": "view",
      "type": "function"
    },
    {
      "inputs": [],
      "name": "owner",
      "outputs": [
        {
          "internalType": "address",
          "name": "",
          "type": "address"
        }
      ],
      "stateMutability": "view",
      "type": "function"
    },
    {
      "inputs": [
        {
          "internalType": "uint256",
          "name": "tokenId",
          "type": "uint256"
        }
      ],
      "name": "ownerOf",
      "outputs": [
        {
          "internalType": "address",
          "name": "",
          "type": "address"
        }
      ],
      "stateMutability": "view",
      "type": "function"
    },
    {
      "inputs": [
        {
          "internalType": "bool",
          "name": "_state",
          "type": "bool"
        }
      ],
      "name": "pause",
      "outputs": [],
      "stateMutability": "nonpayable",
      "type": "function"
    },
    {
      "inputs": [],
      "name": "paused",
      "outputs": [
        {
          "internalType": "bool",
          "name": "",
          "type": "bool"
        }
      ],
      "stateMutability": "view",
      "type": "function"
    },
    {
      "inputs": [],
      "name": "renounceOwnership",
      "outputs": [],
      "stateMutability": "nonpayable",
      "type": "function"
    },
    {
      "inputs": [
        {
          "internalType": "bool",
          "name": "_state",
          "type": "bool"
        }
      ],
      "name": "reveal",
      "outputs": [],
      "stateMutability": "nonpayable",
      "type": "function"
    },
    {
      "inputs": [],
      "name": "revealed",
      "outputs": [
        {
          "internalType": "bool",
          "name": "",
          "type": "bool"
        }
      ],
      "stateMutability": "view",
      "type": "function"
    },
    {
      "inputs": [
        {
          "internalType": "address",
          "name": "from",
          "type": "address"
        },
        {
          "internalType": "address",
          "name": "to",
          "type": "address"
        },
        {
          "internalType": "uint256",
          "name": "tokenId",
          "type": "uint256"
        }
      ],
      "name": "safeTransferFrom",
      "outputs": [],
      "stateMutability": "payable",
      "type": "function"
    },
    {
      "inputs": [
        {
          "internalType": "address",
          "name": "from",
          "type": "address"
        },
        {
          "internalType": "address",
          "name": "to",
          "type": "address"
        },
        {
          "internalType": "uint256",
          "name": "tokenId",
          "type": "uint256"
        },
        {
          "internalType": "bytes",
          "name": "data",
          "type": "bytes"
        }
      ],
      "name": "safeTransferFrom",
      "outputs": [],
      "stateMutability": "payable",
      "type": "function"
    },
    {
      "inputs": [
        {
          "internalType": "address",
          "name": "operator",
          "type": "address"
        },
        {
          "internalType": "bool",
          "name": "approved",
          "type": "bool"
        }
      ],
      "name": "setApprovalForAll",
      "outputs": [],
      "stateMutability": "nonpayable",
      "type": "function"
    },
    {
      "inputs": [
        {
          "internalType": "string",
          "name": "_newBaseExtension",
          "type": "string"
        }
      ],
      "name": "setBaseExtension",
      "outputs": [],
      "stateMutability": "nonpayable",
      "type": "function"
    },
    {
      "inputs": [
        {
          "internalType": "string",
          "name": "_newBaseURI",
          "type": "string"
        }
      ],
      "name": "setBaseURI",
      "outputs": [],
      "stateMutability": "nonpayable",
      "type": "function"
    },
    {
      "inputs": [
        {
          "internalType": "uint256",
          "name": "_limit",
          "type": "uint256"
        }
      ],
      "name": "setMaxperWallet_Free",
      "outputs": [],
      "stateMutability": "nonpayable",
      "type": "function"
    },
    {
      "inputs": [
        {
          "internalType": "uint256",
          "name": "_limit",
          "type": "uint256"
        }
      ],
      "name": "setMaxperWallet_PublicMint",
      "outputs": [],
      "stateMutability": "nonpayable",
      "type": "function"
    },
    {
      "inputs": [
        {
          "internalType": "uint256",
          "name": "_limit",
          "type": "uint256"
        }
      ],
      "name": "setMaxperWallet_SpecialMint",
      "outputs": [],
      "stateMutability": "nonpayable",
      "type": "function"
    },
    {
      "inputs": [
        {
          "internalType": "uint256",
          "name": "_newsupply",
          "type": "uint256"
        }
      ],
      "name": "setMaxsupply",
      "outputs": [],
      "stateMutability": "nonpayable",
      "type": "function"
    },
    {
      "inputs": [
        {
          "internalType": "bytes32",
          "name": "_merkleRoot",
          "type": "bytes32"
        }
      ],
      "name": "setMerkleRoot_WL",
      "outputs": [],
      "stateMutability": "nonpayable",
      "type": "function"
    },
    {
      "inputs": [
        {
          "internalType": "string",
          "name": "_notRevealedURI",
          "type": "string"
        }
      ],
      "name": "setNotRevealedURI",
      "outputs": [],
      "stateMutability": "nonpayable",
      "type": "function"
    },
    {
      "inputs": [
        {
          "internalType": "uint256",
          "name": "_newCost",
          "type": "uint256"
        }
      ],
      "name": "setPublicMintCost",
      "outputs": [],
      "stateMutability": "nonpayable",
      "type": "function"
    },
    {
      "inputs": [
        {
          "internalType": "bytes4",
          "name": "interfaceId",
          "type": "bytes4"
        }
      ],
      "name": "supportsInterface",
      "outputs": [
        {
          "internalType": "bool",
          "name": "",
          "type": "bool"
        }
      ],
      "stateMutability": "view",
      "type": "function"
    },
    {
      "inputs": [],
      "name": "symbol",
      "outputs": [
        {
          "internalType": "string",
          "name": "",
          "type": "string"
        }
      ],
      "stateMutability": "view",
      "type": "function"
    },
    {
      "inputs": [
        {
          "internalType": "bool",
          "name": "_state",
          "type": "bool"
        }
      ],
      "name": "toggle_PublicMint_Live",
      "outputs": [],
      "stateMutability": "nonpayable",
      "type": "function"
    },
    {
      "inputs": [
        {
          "internalType": "bool",
          "name": "_state",
          "type": "bool"
        }
      ],
      "name": "toggle_WhitelistMint_Live",
      "outputs": [],
      "stateMutability": "nonpayable",
      "type": "function"
    },
    {
      "inputs": [
        {
          "internalType": "uint256",
          "name": "tokenId",
          "type": "uint256"
        }
      ],
      "name": "tokenURI",
      "outputs": [
        {
          "internalType": "string",
          "name": "",
          "type": "string"
        }
      ],
      "stateMutability": "view",
      "type": "function"
    },
    {
      "inputs": [],
      "name": "totalSupply",
      "outputs": [
        {
          "internalType": "uint256",
          "name": "",
          "type": "uint256"
        }
      ],
      "stateMutability": "view",
      "type": "function"
    },
    {
      "inputs": [
        {
          "internalType": "address",
          "name": "from",
          "type": "address"
        },
        {
          "internalType": "address",
          "name": "to",
          "type": "address"
        },
        {
          "internalType": "uint256",
          "name": "tokenId",
          "type": "uint256"
        }
      ],
      "name": "transferFrom",
      "outputs": [],
      "stateMutability": "payable",
      "type": "function"
    },
    {
      "inputs": [
        {
          "internalType": "address",
          "name": "newOwner",
          "type": "address"
        }
      ],
      "name": "transferOwnership",
      "outputs": [],
      "stateMutability": "nonpayable",
      "type": "function"
    },
    {
      "inputs": [
        {
          "internalType": "address",
          "name": "",
          "type": "address"
        }
      ],
      "name": "walletMaxMintedDate",
      "outputs": [
        {
          "internalType": "uint256",
          "name": "",
          "type": "uint256"
        }
      ],
      "stateMutability": "view",
      "type": "function"
    },
    {
      "inputs": [
        {
          "internalType": "address",
          "name": "",
          "type": "address"
        }
      ],
      "name": "walletSpecialNFTClaimDate",
      "outputs": [
        {
          "internalType": "uint256",
          "name": "",
          "type": "uint256"
        }
      ],
      "stateMutability": "view",
      "type": "function"
    },
    {
      "inputs": [],
      "name": "withdraw",
      "outputs": [],
      "stateMutability": "payable",
      "type": "function"
    }
  ],
  "bytecode": "0x60c06040526005608090815264173539b7b760d91b60a052600b90620000269082620003e9565b50662386f26fc10000600d55611388600e556004600f556002601055600160115560006012556013805463ffffffff191663010001001790553480156200006c57600080fd5b5060405162002d4b38038062002d4b8339810160408190526200008f91620004b5565b733cc6cdda760b79bafa08df41ecfa224f810dceb66001604051806040016040528060078152602001664261676769657360c81b815250604051806040016040528060048152602001634247475360e01b8152508160029081620000f49190620003e9565b506003620001038282620003e9565b5050600160005550620001163362000275565b60016009556daaeb6d7670e522a718067333cd4e3b1562000260578015620001ae57604051633e9f1edf60e11b81523060048201526001600160a01b03831660248201526daaeb6d7670e522a718067333cd4e90637d3e3dbe906044015b600060405180830381600087803b1580156200018f57600080fd5b505af1158015620001a4573d6000803e3d6000fd5b5050505062000260565b6001600160a01b03821615620001ff5760405163a0af290360e01b81523060048201526001600160a01b03831660248201526daaeb6d7670e522a718067333cd4e9063a0af29039060440162000174565b604051632210724360e11b81523060048201526daaeb6d7670e522a718067333cd4e90634420e48690602401600060405180830381600087803b1580156200024657600080fd5b505af11580156200025b573d6000803e3d6000fd5b505050505b506200026e905081620002c7565b506200058a565b600880546001600160a01b038381166001600160a01b0319831681179093556040519116919082907f8be0079c531659141344cd1fd0a4f28419497f9722a3daafe3b4186f6b6457e090600090a35050565b620002d1620002e3565b600a620002df8282620003e9565b5050565b6008546001600160a01b03163314620003425760405162461bcd60e51b815260206004820181905260248201527f4f776e61626c653a2063616c6c6572206973206e6f7420746865206f776e6572604482015260640160405180910390fd5b565b634e487b7160e01b600052604160045260246000fd5b600181811c908216806200036f57607f821691505b6020821081036200039057634e487b7160e01b600052602260045260246000fd5b50919050565b601f821115620003e457600081815260208120601f850160051c81016020861015620003bf5750805b601f850160051c820191505b81811015620003e057828155600101620003cb565b5050505b505050565b81516001600160401b0381111562000405576200040562000344565b6200041d816200041684546200035a565b8462000396565b602080601f8311600181146200045557600084156200043c5750858301515b600019600386901b1c1916600185901b178555620003e0565b600085815260208120601f198616915b82811015620004865788860151825594840194600190910190840162000465565b5085821015620004a55787850151600019600388901b60f8161c191681555b5050505050600190811b01905550565b60006020808385031215620004c957600080fd5b82516001600160401b0380821115620004e157600080fd5b818501915085601f830112620004f657600080fd5b8151818111156200050b576200050b62000344565b604051601f8201601f19908116603f0116810190838211818310171562000536576200053662000344565b8160405282815288868487010111156200054f57600080fd5b600093505b8284101562000573578484018601518185018701529285019262000554565b600086848301015280965050505050505092915050565b6127b1806200059a6000396000f3fe6080604052600436106103195760003560e01c8063715018a6116101ab578063b88d4fde116100f7578063da3ef23f11610095578063e985e9c51161006f578063e985e9c5146108d0578063ec42b668146108f0578063f2c4ce1e14610910578063f2fde38b1461093057600080fd5b8063da3ef23f14610870578063dc33e68114610890578063e71caf53146108b057600080fd5b8063c698dd0d116100d1578063c698dd0d146107ed578063c87b56dd1461081a578063d0c622721461083a578063d5abeb011461085a57600080fd5b8063b88d4fde146107a5578063b98ab0a1146107b8578063c6682862146107d857600080fd5b80638854b70b1161016457806395d89b411161013e57806395d89b41146107305780639fb17e3414610745578063a22cb46514610758578063b33dff4a1461077857600080fd5b80638854b70b146106dc5780638da5cb5b146106f2578063940cd05b1461071057600080fd5b8063715018a61461061057806380eae5781461062557806381115008146106455780638325bc621461066657806383a076be1461069c578063840bdefb146106bc57600080fd5b80633ccfd60b1161026a5780635c975abb11610223578063664ad567116101fd578063664ad5671461059b5780636c0360eb146105bb5780636c8b8865146105d057806370a08231146105f057600080fd5b80635c975abb1461054b578063613cb469146105655780636352211e1461057b57600080fd5b80633ccfd60b146104b957806341f43434146104c157806342842e0e146104e35780634ae6157d146104f6578063518302271461050c57806355f804b31461052b57600080fd5b8063095ea7b3116102d75780631dc233f4116102b15780631dc233f41461045057806323b872dd146104705780632a97efcb14610483578063370e86d0146104a357600080fd5b8063095ea7b314610408578063149835a01461041b57806318160ddd1461043b57600080fd5b80626f434a1461031e57806301ffc9a71461034757806302329a291461037757806306fdde0314610399578063081812fc146103bb578063081c8c44146103f3575b600080fd5b34801561032a57600080fd5b5061033460105481565b6040519081526020015b60405180910390f35b34801561035357600080fd5b50610367610362366004612052565b610950565b604051901515815260200161033e565b34801561038357600080fd5b5061039761039236600461207d565b6109a2565b005b3480156103a557600080fd5b506103ae6109bd565b60405161033e91906120ea565b3480156103c757600080fd5b506103db6103d63660046120fd565b610a4f565b6040516001600160a01b03909116815260200161033e565b3480156103ff57600080fd5b506103ae610a93565b610397610416366004612132565b610b21565b34801561042757600080fd5b506103976104363660046120fd565b610b3a565b34801561044757600080fd5b50610334610b47565b34801561045c57600080fd5b506013546103679062010000900460ff1681565b61039761047e36600461215c565b610b55565b34801561048f57600080fd5b5061039761049e3660046120fd565b610b80565b3480156104af57600080fd5b5061033460125481565b610397610b8d565b3480156104cd57600080fd5b506103db6daaeb6d7670e522a718067333cd4e81565b6103976104f136600461215c565b610bff565b34801561050257600080fd5b50610334600f5481565b34801561051857600080fd5b5060135461036790610100900460ff1681565b34801561053757600080fd5b50610397610546366004612224565b610c24565b34801561055757600080fd5b506013546103679060ff1681565b34801561057157600080fd5b50610334600d5481565b34801561058757600080fd5b506103db6105963660046120fd565b610c3c565b3480156105a757600080fd5b506103976105b636600461226d565b610c47565b3480156105c757600080fd5b506103ae610e56565b3480156105dc57600080fd5b506103976105eb36600461207d565b610e63565b3480156105fc57600080fd5b5061033461060b3660046122ec565b610e87565b34801561061c57600080fd5b50610397610ed6565b34801561063157600080fd5b506103976106403660046120fd565b610ee8565b34801561065157600080fd5b50601354610367906301000000900460ff1681565b34801561067257600080fd5b506103346106813660046122ec565b6001600160a01b031660009081526015602052604090205490565b3480156106a857600080fd5b506103976106b7366004612307565b610ef5565b3480156106c857600080fd5b506103976106d73660046120fd565b610f6c565b3480156106e857600080fd5b5061033460115481565b3480156106fe57600080fd5b506008546001600160a01b03166103db565b34801561071c57600080fd5b5061039761072b36600461207d565b6110ed565b34801561073c57600080fd5b506103ae61110f565b6103976107533660046120fd565b61111e565b34801561076457600080fd5b50610397610773366004612333565b611353565b34801561078457600080fd5b506103346107933660046122ec565b60146020526000908152604090205481565b6103976107b336600461236a565b611367565b3480156107c457600080fd5b506103976107d336600461207d565b611394565b3480156107e457600080fd5b506103ae6113ba565b3480156107f957600080fd5b506103346108083660046122ec565b60156020526000908152604090205481565b34801561082657600080fd5b506103ae6108353660046120fd565b6113c7565b34801561084657600080fd5b506103976108553660046120fd565b61153c565b34801561086657600080fd5b50610334600e5481565b34801561087c57600080fd5b5061039761088b366004612224565b611549565b34801561089c57600080fd5b506103346108ab3660046122ec565b61155d565b3480156108bc57600080fd5b506103976108cb3660046120fd565b611568565b3480156108dc57600080fd5b506103676108eb3660046123e6565b611575565b3480156108fc57600080fd5b5061039761090b3660046120fd565b6115a3565b34801561091c57600080fd5b5061039761092b366004612224565b6115b0565b34801561093c57600080fd5b5061039761094b3660046122ec565b6115c4565b60006301ffc9a760e01b6001600160e01b03198316148061098157506380ac58cd60e01b6001600160e01b03198316145b8061099c5750635b5e139f60e01b6001600160e01b03198316145b92915050565b6109aa61163a565b6013805460ff1916911515919091179055565b6060600280546109cc90612410565b80601f01602080910402602001604051908101604052809291908181526020018280546109f890612410565b8015610a455780601f10610a1a57610100808354040283529160200191610a45565b820191906000526020600020905b815481529060010190602001808311610a2857829003601f168201915b5050505050905090565b6000610a5a82611694565b610a77576040516333d1c03960e21b815260040160405180910390fd5b506000908152600660205260409020546001600160a01b031690565b600c8054610aa090612410565b80601f0160208091040260200160405190810160405280929190818152602001828054610acc90612410565b8015610b195780601f10610aee57610100808354040283529160200191610b19565b820191906000526020600020905b815481529060010190602001808311610afc57829003601f168201915b505050505081565b81610b2b816116c9565b610b358383611782565b505050565b610b4261163a565b600e55565b600154600054036000190190565b826001600160a01b0381163314610b6f57610b6f336116c9565b610b7a848484611822565b50505050565b610b8861163a565b601155565b610b9561163a565b610b9d6119bb565b604051600090339047908381818185875af1925050503d8060008114610bdf576040519150601f19603f3d011682016040523d82523d6000602084013e610be4565b606091505b5050905080610bf257600080fd5b50610bfd6001600955565b565b826001600160a01b0381163314610c1957610c19336116c9565b610b7a848484611a14565b610c2c61163a565b600a610c388282612490565b5050565b600061099c82611a2f565b610c4f6119bb565b60135460ff1615610ca15760405162461bcd60e51b81526020600482015260176024820152761bdbdc1cc818dbdb9d1c9858dd081a5cc81c185d5cd959604a1b60448201526064015b60405180910390fd5b6013546301000000900460ff16610cf45760405162461bcd60e51b815260206004820152601760248201527614d85b194812185cdb89dd081cdd185c9d1959081e595d604a1b6044820152606401610c98565b610d69828280806020026020016040519081016040528093929190818152602001838360200280828437600092019190915250506012546040516bffffffffffffffffffffffff193360601b166020820152909250603401905060405160208183030381529060405280519060200120611a9e565b610db55760405162461bcd60e51b815260206004820152601760248201527f20596f75206172656e27742077686974656c69737465640000000000000000006044820152606401610c98565b6000610dbf610b47565b905060008411610de15760405162461bcd60e51b8152600401610c9890612550565b600e54610dee858361259d565b1115610e0c5760405162461bcd60e51b8152600401610c98906125b0565b60105484610e1933611ab4565b610e23919061259d565b1115610e415760405162461bcd60e51b8152600401610c98906125d4565b610e4b3385611add565b50610b356001600955565b600a8054610aa090612410565b610e6b61163a565b60138054911515620100000262ff000019909216919091179055565b60006001600160a01b038216610eb0576040516323d3ad8160e21b815260040160405180910390fd5b506001600160a01b031660009081526005602052604090205467ffffffffffffffff1690565b610ede61163a565b610bfd6000611af7565b610ef061163a565b600d55565b610efd61163a565b610f056119bb565b6000610f0f610b47565b600e54909150610f1f848361259d565b1115610f575760405162461bcd60e51b815260206004820152600760248201526614dbdb191bdd5d60ca1b6044820152606401610c98565b610f618284611add565b50610c386001600955565b336000908152601560205260408120549003610fe15760405162461bcd60e51b815260206004820152602e60248201527f5573657220686173206e6f74206d696e746564206d6178204e46547320696e2060448201526d70726576696f757320706861736560901b6064820152608401610c98565b3360009081526015602052604090205442101561104a5760405162461bcd60e51b815260206004820152602160248201527f5370656369616c204e46542063616e6e6f7420626520636c61696d65642079656044820152601d60fa1b6064820152608401610c98565b6000611054610b47565b9050600082116110765760405162461bcd60e51b8152600401610c9890612550565b600e54611083838361259d565b11156110a15760405162461bcd60e51b8152600401610c98906125b0565b601154600f546110b1919061259d565b826110bb33611ab4565b6110c5919061259d565b11156110e35760405162461bcd60e51b8152600401610c98906125d4565b610c383383611add565b6110f561163a565b601380549115156101000261ff0019909216919091179055565b6060600380546109cc90612410565b6111266119bb565b60135460ff16156111735760405162461bcd60e51b81526020600482015260176024820152761bdbdc1cc818dbdb9d1c9858dd081a5cc81c185d5cd959604a1b6044820152606401610c98565b60135462010000900460ff166111c55760405162461bcd60e51b815260206004820152601760248201527614d85b194812185cdb89dd081cdd185c9d1959081e595d604a1b6044820152606401610c98565b60006111cf610b47565b9050600082116111f15760405162461bcd60e51b8152600401610c9890612550565b600e546111fe838361259d565b111561121c5760405162461bcd60e51b8152600401610c98906125b0565b600f548261122933611ab4565b611233919061259d565b11156112515760405162461bcd60e51b8152600401610c98906125d4565b600060105461125f33611ab4565b101561127e5761126e33611ab4565b60105461127b919061260b565b90505b6010548361128b33611ab4565b611295919061259d565b11156112f6576112a5818461260b565b600d546112b2919061261e565b3410156112f65760405162461bcd60e51b8152602060048201526012602482015271696e73756666696369656e742066756e647360701b6044820152606401610c98565b6113003384611add565b600f5461130c33611ab4565b03611344573360009081526014602052604090204290819055611333906301e1338061259d565b336000908152601560205260409020555b50506113506001600955565b50565b8161135d816116c9565b610b358383611b49565b836001600160a01b038116331461138157611381336116c9565b61138d85858585611bb5565b5050505050565b61139c61163a565b6013805491151563010000000263ff00000019909216919091179055565b600b8054610aa090612410565b60606113d282611694565b6114375760405162461bcd60e51b815260206004820152603060248201527f455243373231414d657461646174613a2055524920717565727920666f72206e60448201526f37b732bc34b9ba32b73a103a37b5b2b760811b6064820152608401610c98565b601354610100900460ff1615156000036114dd57600c805461145890612410565b80601f016020809104026020016040519081016040528092919081815260200182805461148490612410565b80156114d15780601f106114a6576101008083540402835291602001916114d1565b820191906000526020600020905b8154815290600101906020018083116114b457829003601f168201915b50505050509050919050565b60006114e7611bf9565b905060008151116115075760405180602001604052806000815250611535565b8061151184611c08565b600b60405160200161152593929190612635565b6040516020818303038152906040525b9392505050565b61154461163a565b600f55565b61155161163a565b600b610c388282612490565b600061099c82611ab4565b61157061163a565b601055565b6001600160a01b03918216600090815260076020908152604080832093909416825291909152205460ff1690565b6115ab61163a565b601255565b6115b861163a565b600c610c388282612490565b6115cc61163a565b6001600160a01b0381166116315760405162461bcd60e51b815260206004820152602660248201527f4f776e61626c653a206e6577206f776e657220697320746865207a65726f206160448201526564647265737360d01b6064820152608401610c98565b61135081611af7565b6008546001600160a01b03163314610bfd5760405162461bcd60e51b815260206004820181905260248201527f4f776e61626c653a2063616c6c6572206973206e6f7420746865206f776e65726044820152606401610c98565b6000816001111580156116a8575060005482105b801561099c575050600090815260046020526040902054600160e01b161590565b6daaeb6d7670e522a718067333cd4e3b1561135057604051633185c44d60e21b81523060048201526001600160a01b03821660248201526daaeb6d7670e522a718067333cd4e9063c617113490604401602060405180830381865afa158015611736573d6000803e3d6000fd5b505050506040513d601f19601f8201168201806040525081019061175a91906126d5565b61135057604051633b79c77360e21b81526001600160a01b0382166004820152602401610c98565b600061178d82610c3c565b9050336001600160a01b038216146117c6576117a98133611575565b6117c6576040516367d9dca160e11b815260040160405180910390fd5b60008281526006602052604080822080546001600160a01b0319166001600160a01b0387811691821790925591518593918516917f8c5be1e5ebec7d5bd14f71427d1e84f3dd0314c0f7b2291e5b200ac8c7c3b92591a4505050565b600061182d82611a2f565b9050836001600160a01b0316816001600160a01b0316146118605760405162a1148160e81b815260040160405180910390fd5b60008281526006602052604090208054338082146001600160a01b038816909114176118ad576118908633611575565b6118ad57604051632ce44b5f60e11b815260040160405180910390fd5b6001600160a01b0385166118d457604051633a954ecd60e21b815260040160405180910390fd5b80156118df57600082555b6001600160a01b038681166000908152600560205260408082208054600019019055918716808252919020805460010190554260a01b17600160e11b17600085815260046020526040812091909155600160e11b841690036119715760018401600081815260046020526040812054900361196f57600054811461196f5760008181526004602052604090208490555b505b83856001600160a01b0316876001600160a01b03167fddf252ad1be2c89b69c2b068fc378daa952ba7f163c4a11628f55a4df523b3ef60405160405180910390a45b505050505050565b600260095403611a0d5760405162461bcd60e51b815260206004820152601f60248201527f5265656e7472616e637947756172643a207265656e7472616e742063616c6c006044820152606401610c98565b6002600955565b610b3583838360405180602001604052806000815250611367565b60008180600111611a8557600054811015611a855760008181526004602052604081205490600160e01b82169003611a83575b80600003611535575060001901600081815260046020526040902054611a62565b505b604051636f96cda160e11b815260040160405180910390fd5b600082611aab8584611c9b565b14949350505050565b6001600160a01b03166000908152600560205260409081902054901c67ffffffffffffffff1690565b610c38828260405180602001604052806000815250611ce8565b600880546001600160a01b038381166001600160a01b0319831681179093556040519116919082907f8be0079c531659141344cd1fd0a4f28419497f9722a3daafe3b4186f6b6457e090600090a35050565b3360008181526007602090815260408083206001600160a01b03871680855290835292819020805460ff191686151590811790915590519081529192917f17307eab39ab6107e8899845ad3d59bd9653f200f220920489ca2b5937696c31910160405180910390a35050565b611bc0848484610b55565b6001600160a01b0383163b15610b7a57611bdc84848484611d4e565b610b7a576040516368d2bf6b60e11b815260040160405180910390fd5b6060600a80546109cc90612410565b60606000611c1583611e3a565b600101905060008167ffffffffffffffff811115611c3557611c35612198565b6040519080825280601f01601f191660200182016040528015611c5f576020820181803683370190505b5090508181016020015b600019016f181899199a1a9b1b9c1cb0b131b232b360811b600a86061a8153600a8504945084611c6957509392505050565b600081815b8451811015611ce057611ccc82868381518110611cbf57611cbf6126f2565b6020026020010151611f12565b915080611cd881612708565b915050611ca0565b509392505050565b611cf28383611f3e565b6001600160a01b0383163b15610b35576000548281035b611d1c6000868380600101945086611d4e565b611d39576040516368d2bf6b60e11b815260040160405180910390fd5b818110611d0957816000541461138d57600080fd5b604051630a85bd0160e11b81526000906001600160a01b0385169063150b7a0290611d83903390899088908890600401612721565b6020604051808303816000875af1925050508015611dbe575060408051601f3d908101601f19168201909252611dbb9181019061275e565b60015b611e1c573d808015611dec576040519150601f19603f3d011682016040523d82523d6000602084013e611df1565b606091505b508051600003611e14576040516368d2bf6b60e11b815260040160405180910390fd5b805181602001fd5b6001600160e01b031916630a85bd0160e11b1490505b949350505050565b60008072184f03e93ff9f4daa797ed6e38ed64bf6a1f0160401b8310611e795772184f03e93ff9f4daa797ed6e38ed64bf6a1f0160401b830492506040015b6d04ee2d6d415b85acef81000000008310611ea5576d04ee2d6d415b85acef8100000000830492506020015b662386f26fc100008310611ec357662386f26fc10000830492506010015b6305f5e1008310611edb576305f5e100830492506008015b6127108310611eef57612710830492506004015b60648310611f01576064830492506002015b600a831061099c5760010192915050565b6000818310611f2e576000828152602084905260409020611535565b5060009182526020526040902090565b6000805490829003611f635760405163b562e8dd60e01b815260040160405180910390fd5b6001600160a01b03831660008181526005602090815260408083208054680100000000000000018802019055848352600490915281206001851460e11b4260a01b178317905582840190839083907fddf252ad1be2c89b69c2b068fc378daa952ba7f163c4a11628f55a4df523b3ef8180a4600183015b81811461201257808360007fddf252ad1be2c89b69c2b068fc378daa952ba7f163c4a11628f55a4df523b3ef600080a4600101611fda565b508160000361203357604051622e076360e81b815260040160405180910390fd5b60005550505050565b6001600160e01b03198116811461135057600080fd5b60006020828403121561206457600080fd5b81356115358161203c565b801515811461135057600080fd5b60006020828403121561208f57600080fd5b81356115358161206f565b60005b838110156120b557818101518382015260200161209d565b50506000910152565b600081518084526120d681602086016020860161209a565b601f01601f19169290920160200192915050565b60208152600061153560208301846120be565b60006020828403121561210f57600080fd5b5035919050565b80356001600160a01b038116811461212d57600080fd5b919050565b6000806040838503121561214557600080fd5b61214e83612116565b946020939093013593505050565b60008060006060848603121561217157600080fd5b61217a84612116565b925061218860208501612116565b9150604084013590509250925092565b634e487b7160e01b600052604160045260246000fd5b600067ffffffffffffffff808411156121c9576121c9612198565b604051601f8501601f19908116603f011681019082821181831017156121f1576121f1612198565b8160405280935085815286868601111561220a57600080fd5b858560208301376000602087830101525050509392505050565b60006020828403121561223657600080fd5b813567ffffffffffffffff81111561224d57600080fd5b8201601f8101841361225e57600080fd5b611e32848235602084016121ae565b60008060006040848603121561228257600080fd5b83359250602084013567ffffffffffffffff808211156122a157600080fd5b818601915086601f8301126122b557600080fd5b8135818111156122c457600080fd5b8760208260051b85010111156122d957600080fd5b6020830194508093505050509250925092565b6000602082840312156122fe57600080fd5b61153582612116565b6000806040838503121561231a57600080fd5b8235915061232a60208401612116565b90509250929050565b6000806040838503121561234657600080fd5b61234f83612116565b9150602083013561235f8161206f565b809150509250929050565b6000806000806080858703121561238057600080fd5b61238985612116565b935061239760208601612116565b925060408501359150606085013567ffffffffffffffff8111156123ba57600080fd5b8501601f810187136123cb57600080fd5b6123da878235602084016121ae565b91505092959194509250565b600080604083850312156123f957600080fd5b61240283612116565b915061232a60208401612116565b600181811c9082168061242457607f821691505b60208210810361244457634e487b7160e01b600052602260045260246000fd5b50919050565b601f821115610b3557600081815260208120601f850160051c810160208610156124715750805b601f850160051c820191505b818110156119b35782815560010161247d565b815167ffffffffffffffff8111156124aa576124aa612198565b6124be816124b88454612410565b8461244a565b602080601f8311600181146124f357600084156124db5750858301515b600019600386901b1c1916600185901b1785556119b3565b600085815260208120601f198616915b8281101561252257888601518255948401946001909101908401612503565b50858210156125405787850151600019600388901b60f8161c191681555b5050505050600190811b01905550565b6020808252601b908201527f6e65656420746f206d696e74206174206c656173742031204e46540000000000604082015260600190565b634e487b7160e01b600052601160045260246000fd5b8082018082111561099c5761099c612587565b6020808252600a908201526915d94814dbdb191bdd5d60b21b604082015260600190565b6020808252601d908201527f204d6178204e465473205065722057616c6c6574206578636565646564000000604082015260600190565b8181038181111561099c5761099c612587565b808202811582820484141761099c5761099c612587565b6000845160206126488285838a0161209a565b85519184019161265b8184848a0161209a565b855492019160009061266c81612410565b600182811680156126845760018114612699576126c5565b60ff19841687528215158302870194506126c5565b896000528560002060005b848110156126bd578154898201529083019087016126a4565b505082870194505b50929a9950505050505050505050565b6000602082840312156126e757600080fd5b81516115358161206f565b634e487b7160e01b600052603260045260246000fd5b60006001820161271a5761271a612587565b5060010190565b6001600160a01b0385811682528416602082015260408101839052608060608201819052600090612754908301846120be565b9695505050505050565b60006020828403121561277057600080fd5b81516115358161203c56fea264697066735822122068e9149510d8bb99a629e042854497436fc496a0db3bc0ebdc2d25be9aea371c64736f6c63430008110033",
  "linkReferences": {},
  "deployedLinkReferences": {}
}