{
  "_format": "hh-sol-artifact-1",
  "contractName": "Puff",
  "sourceName": "contracts/Puff.sol",
  "abi": [
    {
      "inputs": [
        {
          "internalType": "string",
          "name": "_initBaseURI",
          "type": "string"
        }
      ],
      "stateMutability": "nonpayable",
      "type": "constructor"
    },
    {
      "inputs": [],
      "name": "ApprovalCallerNotOwnerNorApproved",
      "type": "error"
    },
    {
      "inputs": [],
      "name": "ApprovalQueryForNonexistentToken",
      "type": "error"
    },
    {
      "inputs": [],
      "name": "BalanceQueryForZeroAddress",
      "type": "error"
    },
    {
      "inputs": [],
      "name": "MintERC2309QuantityExceedsLimit",
      "type": "error"
    },
    {
      "inputs": [],
      "name": "MintToZeroAddress",
      "type": "error"
    },
    {
      "inputs": [],
      "name": "MintZeroQuantity",
      "type": "error"
    },
    {
      "inputs": [
        {
          "internalType": "address",
          "name": "operator",
          "type": "address"
        }
      ],
      "name": "OperatorNotAllowed",
      "type": "error"
    },
    {
      "inputs": [],
      "name": "OwnerQueryForNonexistentToken",
      "type": "error"
    },
    {
      "inputs": [],
      "name": "OwnershipNotInitializedForExtraData",
      "type": "error"
    },
    {
      "inputs": [],
      "name": "TransferCallerNotOwnerNorApproved",
      "type": "error"
    },
    {
      "inputs": [],
      "name": "TransferFromIncorrectOwner",
      "type": "error"
    },
    {
      "inputs": [],
      "name": "TransferToNonERC721ReceiverImplementer",
      "type": "error"
    },
    {
      "inputs": [],
      "name": "TransferToZeroAddress",
      "type": "error"
    },
    {
      "inputs": [],
      "name": "URIQueryForNonexistentToken",
      "type": "error"
    },
    {
      "anonymous": false,
      "inputs": [
        {
          "indexed": true,
          "internalType": "address",
          "name": "owner",
          "type": "address"
        },
        {
          "indexed": true,
          "internalType": "address",
          "name": "approved",
          "type": "address"
        },
        {
          "indexed": true,
          "internalType": "uint256",
          "name": "tokenId",
          "type": "uint256"
        }
      ],
      "name": "Approval",
      "type": "event"
    },
    {
      "anonymous": false,
      "inputs": [
        {
          "indexed": true,
          "internalType": "address",
          "name": "owner",
          "type": "address"
        },
        {
          "indexed": true,
          "internalType": "address",
          "name": "operator",
          "type": "address"
        },
        {
          "indexed": false,
          "internalType": "bool",
          "name": "approved",
          "type": "bool"
        }
      ],
      "name": "ApprovalForAll",
      "type": "event"
    },
    {
      "anonymous": false,
      "inputs": [
        {
          "indexed": true,
          "internalType": "uint256",
          "name": "fromTokenId",
          "type": "uint256"
        },
        {
          "indexed": false,
          "internalType": "uint256",
          "name": "toTokenId",
          "type": "uint256"
        },
        {
          "indexed": true,
          "internalType": "address",
          "name": "from",
          "type": "address"
        },
        {
          "indexed": true,
          "internalType": "address",
          "name": "to",
          "type": "address"
        }
      ],
      "name": "ConsecutiveTransfer",
      "type": "event"
    },
    {
      "anonymous": false,
      "inputs": [
        {
          "indexed": true,
          "internalType": "address",
          "name": "previousOwner",
          "type": "address"
        },
        {
          "indexed": true,
          "internalType": "address",
          "name": "newOwner",
          "type": "address"
        }
      ],
      "name": "OwnershipTransferred",
      "type": "event"
    },
    {
      "anonymous": false,
      "inputs": [
        {
          "indexed": true,
          "internalType": "address",
          "name": "from",
          "type": "address"
        },
        {
          "indexed": true,
          "internalType": "address",
          "name": "to",
          "type": "address"
        },
        {
          "indexed": true,
          "internalType": "uint256",
          "name": "tokenId",
          "type": "uint256"
        }
      ],
      "name": "Transfer",
      "type": "event"
    },
    {
      "inputs": [],
      "name": "MaxperWallet_PublicMint",
      "outputs": [
        {
          "internalType": "uint256",
          "name": "",
          "type": "uint256"
        }
      ],
      "stateMutability": "view",
      "type": "function"
    },
    {
      "inputs": [],
      "name": "MaxperWallet_SpecialMint",
      "outputs": [
        {
          "internalType": "uint256",
          "name": "",
          "type": "uint256"
        }
      ],
      "stateMutability": "view",
      "type": "function"
    },
    {
      "inputs": [],
      "name": "OPERATOR_FILTER_REGISTRY",
      "outputs": [
        {
          "internalType": "contract IOperatorFilterRegistry",
          "name": "",
          "type": "address"
        }
      ],
      "stateMutability": "view",
      "type": "function"
    },
    {
      "inputs": [
        {
          "internalType": "uint256",
          "name": "tokens",
          "type": "uint256"
        }
      ],
      "name": "PublicMint",
      "outputs": [],
      "stateMutability": "payable",
      "type": "function"
    },
    {
      "inputs": [],
      "name": "PublicMintCost",
      "outputs": [
        {
          "internalType": "uint256",
          "name": "",
          "type": "uint256"
        }
      ],
      "stateMutability": "view",
      "type": "function"
    },
    {
      "inputs": [],
      "name": "PublicMint_Live",
      "outputs": [
        {
          "internalType": "bool",
          "name": "",
          "type": "bool"
        }
      ],
      "stateMutability": "view",
      "type": "function"
    },
    {
      "inputs": [
        {
          "internalType": "address",
          "name": "operator",
          "type": "address"
        },
        {
          "internalType": "uint256",
          "name": "tokenId",
          "type": "uint256"
        }
      ],
      "name": "approve",
      "outputs": [],
      "stateMutability": "payable",
      "type": "function"
    },
    {
      "inputs": [
        {
          "internalType": "address",
          "name": "owner",
          "type": "address"
        }
      ],
      "name": "balanceOf",
      "outputs": [
        {
          "internalType": "uint256",
          "name": "",
          "type": "uint256"
        }
      ],
      "stateMutability": "view",
      "type": "function"
    },
    {
      "inputs": [],
      "name": "baseExtension",
      "outputs": [
        {
          "internalType": "string",
          "name": "",
          "type": "string"
        }
      ],
      "stateMutability": "view",
      "type": "function"
    },
    {
      "inputs": [],
      "name": "baseURI",
      "outputs": [
        {
          "internalType": "string",
          "name": "",
          "type": "string"
        }
      ],
      "stateMutability": "view",
      "type": "function"
    },
    {
      "inputs": [
        {
          "internalType": "uint256",
          "name": "tokenId",
          "type": "uint256"
        }
      ],
      "name": "getApproved",
      "outputs": [
        {
          "internalType": "address",
          "name": "",
          "type": "address"
        }
      ],
      "stateMutability": "view",
      "type": "function"
    },
    {
      "inputs": [
        {
          "internalType": "address",
          "name": "owner",
          "type": "address"
        }
      ],
      "name": "getWalletSpecialNFTClaimDate",
      "outputs": [
        {
          "internalType": "uint256",
          "name": "",
          "type": "uint256"
        }
      ],
      "stateMutability": "view",
      "type": "function"
    },
    {
      "inputs": [
        {
          "internalType": "uint256",
          "name": "_mintAmount",
          "type": "uint256"
        },
        {
          "internalType": "address",
          "name": "destination",
          "type": "address"
        }
      ],
      "name": "gift",
      "outputs": [],
      "stateMutability": "nonpayable",
      "type": "function"
    },
    {
      "inputs": [
        {
          "internalType": "address",
          "name": "owner",
          "type": "address"
        },
        {
          "internalType": "address",
          "name": "operator",
          "type": "address"
        }
      ],
      "name": "isApprovedForAll",
      "outputs": [
        {
          "internalType": "bool",
          "name": "",
          "type": "bool"
        }
      ],
      "stateMutability": "view",
      "type": "function"
    },
    {
      "inputs": [],
      "name": "maxSupply",
      "outputs": [
        {
          "internalType": "uint256",
          "name": "",
          "type": "uint256"
        }
      ],
      "stateMutability": "view",
      "type": "function"
    },
    {
      "inputs": [
        {
          "internalType": "uint256",
          "name": "tokens",
          "type": "uint256"
        }
      ],
      "name": "mintSpecialNFT",
      "outputs": [],
      "stateMutability": "nonpayable",
      "type": "function"
    },
    {
      "inputs": [],
      "name": "name",
      "outputs": [
        {
          "internalType": "string",
          "name": "",
          "type": "string"
        }
      ],
      "stateMutability": "view",
      "type": "function"
    },
    {
      "inputs": [],
      "name": "notRevealedUri",
      "outputs": [
        {
          "internalType": "string",
          "name": "",
          "type": "string"
        }
      ],
      "stateMutability": "view",
      "type": "function"
    },
    {
      "inputs": [
        {
          "internalType": "address",
          "name": "owner",
          "type": "address"
        }
      ],
      "name": "numberMinted",
      "outputs": [
        {
          "internalType": "uint256",
          "name": "",
          "type": "uint256"
        }
      ],
      "stateMutability": "view",
      "type": "function"
    },
    {
      "inputs": [],
      "name": "owner",
      "outputs": [
        {
          "internalType": "address",
          "name": "",
          "type": "address"
        }
      ],
      "stateMutability": "view",
      "type": "function"
    },
    {
      "inputs": [
        {
          "internalType": "uint256",
          "name": "tokenId",
          "type": "uint256"
        }
      ],
      "name": "ownerOf",
      "outputs": [
        {
          "internalType": "address",
          "name": "",
          "type": "address"
        }
      ],
      "stateMutability": "view",
      "type": "function"
    },
    {
      "inputs": [
        {
          "internalType": "bool",
          "name": "_state",
          "type": "bool"
        }
      ],
      "name": "pause",
      "outputs": [],
      "stateMutability": "nonpayable",
      "type": "function"
    },
    {
      "inputs": [],
      "name": "paused",
      "outputs": [
        {
          "internalType": "bool",
          "name": "",
          "type": "bool"
        }
      ],
      "stateMutability": "view",
      "type": "function"
    },
    {
      "inputs": [],
      "name": "renounceOwnership",
      "outputs": [],
      "stateMutability": "nonpayable",
      "type": "function"
    },
    {
      "inputs": [
        {
          "internalType": "bool",
          "name": "_state",
          "type": "bool"
        }
      ],
      "name": "reveal",
      "outputs": [],
      "stateMutability": "nonpayable",
      "type": "function"
    },
    {
      "inputs": [],
      "name": "revealed",
      "outputs": [
        {
          "internalType": "bool",
          "name": "",
          "type": "bool"
        }
      ],
      "stateMutability": "view",
      "type": "function"
    },
    {
      "inputs": [
        {
          "internalType": "address",
          "name": "from",
          "type": "address"
        },
        {
          "internalType": "address",
          "name": "to",
          "type": "address"
        },
        {
          "internalType": "uint256",
          "name": "tokenId",
          "type": "uint256"
        }
      ],
      "name": "safeTransferFrom",
      "outputs": [],
      "stateMutability": "payable",
      "type": "function"
    },
    {
      "inputs": [
        {
          "internalType": "address",
          "name": "from",
          "type": "address"
        },
        {
          "internalType": "address",
          "name": "to",
          "type": "address"
        },
        {
          "internalType": "uint256",
          "name": "tokenId",
          "type": "uint256"
        },
        {
          "internalType": "bytes",
          "name": "data",
          "type": "bytes"
        }
      ],
      "name": "safeTransferFrom",
      "outputs": [],
      "stateMutability": "payable",
      "type": "function"
    },
    {
      "inputs": [
        {
          "internalType": "address",
          "name": "operator",
          "type": "address"
        },
        {
          "internalType": "bool",
          "name": "approved",
          "type": "bool"
        }
      ],
      "name": "setApprovalForAll",
      "outputs": [],
      "stateMutability": "nonpayable",
      "type": "function"
    },
    {
      "inputs": [
        {
          "internalType": "string",
          "name": "_newBaseExtension",
          "type": "string"
        }
      ],
      "name": "setBaseExtension",
      "outputs": [],
      "stateMutability": "nonpayable",
      "type": "function"
    },
    {
      "inputs": [
        {
          "internalType": "string",
          "name": "_newBaseURI",
          "type": "string"
        }
      ],
      "name": "setBaseURI",
      "outputs": [],
      "stateMutability": "nonpayable",
      "type": "function"
    },
    {
      "inputs": [
        {
          "internalType": "uint256",
          "name": "_limit",
          "type": "uint256"
        }
      ],
      "name": "setMaxperWallet_PublicMint",
      "outputs": [],
      "stateMutability": "nonpayable",
      "type": "function"
    },
    {
      "inputs": [
        {
          "internalType": "uint256",
          "name": "_limit",
          "type": "uint256"
        }
      ],
      "name": "setMaxperWallet_SpecialMint",
      "outputs": [],
      "stateMutability": "nonpayable",
      "type": "function"
    },
    {
      "inputs": [
        {
          "internalType": "uint256",
          "name": "_newsupply",
          "type": "uint256"
        }
      ],
      "name": "setMaxsupply",
      "outputs": [],
      "stateMutability": "nonpayable",
      "type": "function"
    },
    {
      "inputs": [
        {
          "internalType": "string",
          "name": "_notRevealedURI",
          "type": "string"
        }
      ],
      "name": "setNotRevealedURI",
      "outputs": [],
      "stateMutability": "nonpayable",
      "type": "function"
    },
    {
      "inputs": [
        {
          "internalType": "uint256",
          "name": "_newCost",
          "type": "uint256"
        }
      ],
      "name": "setPublicMintCost",
      "outputs": [],
      "stateMutability": "nonpayable",
      "type": "function"
    },
    {
      "inputs": [
        {
          "internalType": "bytes4",
          "name": "interfaceId",
          "type": "bytes4"
        }
      ],
      "name": "supportsInterface",
      "outputs": [
        {
          "internalType": "bool",
          "name": "",
          "type": "bool"
        }
      ],
      "stateMutability": "view",
      "type": "function"
    },
    {
      "inputs": [],
      "name": "symbol",
      "outputs": [
        {
          "internalType": "string",
          "name": "",
          "type": "string"
        }
      ],
      "stateMutability": "view",
      "type": "function"
    },
    {
      "inputs": [
        {
          "internalType": "bool",
          "name": "_state",
          "type": "bool"
        }
      ],
      "name": "toggle_PublicMint_Live",
      "outputs": [],
      "stateMutability": "nonpayable",
      "type": "function"
    },
    {
      "inputs": [
        {
          "internalType": "uint256",
          "name": "tokenId",
          "type": "uint256"
        }
      ],
      "name": "tokenURI",
      "outputs": [
        {
          "internalType": "string",
          "name": "",
          "type": "string"
        }
      ],
      "stateMutability": "view",
      "type": "function"
    },
    {
      "inputs": [],
      "name": "totalSupply",
      "outputs": [
        {
          "internalType": "uint256",
          "name": "",
          "type": "uint256"
        }
      ],
      "stateMutability": "view",
      "type": "function"
    },
    {
      "inputs": [
        {
          "internalType": "address",
          "name": "from",
          "type": "address"
        },
        {
          "internalType": "address",
          "name": "to",
          "type": "address"
        },
        {
          "internalType": "uint256",
          "name": "tokenId",
          "type": "uint256"
        }
      ],
      "name": "transferFrom",
      "outputs": [],
      "stateMutability": "payable",
      "type": "function"
    },
    {
      "inputs": [
        {
          "internalType": "address",
          "name": "newOwner",
          "type": "address"
        }
      ],
      "name": "transferOwnership",
      "outputs": [],
      "stateMutability": "nonpayable",
      "type": "function"
    },
    {
      "inputs": [
        {
          "internalType": "address",
          "name": "",
          "type": "address"
        }
      ],
      "name": "walletMaxMintDate",
      "outputs": [
        {
          "internalType": "uint256",
          "name": "",
          "type": "uint256"
        }
      ],
      "stateMutability": "view",
      "type": "function"
    },
    {
      "inputs": [
        {
          "internalType": "address",
          "name": "",
          "type": "address"
        }
      ],
      "name": "walletMintCounts",
      "outputs": [
        {
          "internalType": "uint256",
          "name": "",
          "type": "uint256"
        }
      ],
      "stateMutability": "view",
      "type": "function"
    },
    {
      "inputs": [
        {
          "internalType": "address",
          "name": "",
          "type": "address"
        }
      ],
      "name": "walletSpecialNFTClaimDate",
      "outputs": [
        {
          "internalType": "uint256",
          "name": "",
          "type": "uint256"
        }
      ],
      "stateMutability": "view",
      "type": "function"
    },
    {
      "inputs": [],
      "name": "withdraw",
      "outputs": [],
      "stateMutability": "payable",
      "type": "function"
    }
  ],
  "bytecode": "0x60c06040526005608090815264173539b7b760d91b60a052600b90620000269082620003da565b50662386f26fc10000600d5561014f600e556004600f5560016010556011805462ffffff1916620101001790553480156200006057600080fd5b50604051620028e6380380620028e68339810160408190526200008391620004a6565b733cc6cdda760b79bafa08df41ecfa224f810dceb6600160405180604001604052806004815260200163283ab33360e11b81525060405180604001604052806004815260200163283ab33360e11b8152508160029081620000e59190620003da565b506003620000f48282620003da565b5050600160005550620001073362000266565b60016009556daaeb6d7670e522a718067333cd4e3b15620002515780156200019f57604051633e9f1edf60e11b81523060048201526001600160a01b03831660248201526daaeb6d7670e522a718067333cd4e90637d3e3dbe906044015b600060405180830381600087803b1580156200018057600080fd5b505af115801562000195573d6000803e3d6000fd5b5050505062000251565b6001600160a01b03821615620001f05760405163a0af290360e01b81523060048201526001600160a01b03831660248201526daaeb6d7670e522a718067333cd4e9063a0af29039060440162000165565b604051632210724360e11b81523060048201526daaeb6d7670e522a718067333cd4e90634420e48690602401600060405180830381600087803b1580156200023757600080fd5b505af11580156200024c573d6000803e3d6000fd5b505050505b506200025f905081620002b8565b506200057b565b600880546001600160a01b038381166001600160a01b0319831681179093556040519116919082907f8be0079c531659141344cd1fd0a4f28419497f9722a3daafe3b4186f6b6457e090600090a35050565b620002c2620002d4565b600a620002d08282620003da565b5050565b6008546001600160a01b03163314620003335760405162461bcd60e51b815260206004820181905260248201527f4f776e61626c653a2063616c6c6572206973206e6f7420746865206f776e6572604482015260640160405180910390fd5b565b634e487b7160e01b600052604160045260246000fd5b600181811c908216806200036057607f821691505b6020821081036200038157634e487b7160e01b600052602260045260246000fd5b50919050565b601f821115620003d557600081815260208120601f850160051c81016020861015620003b05750805b601f850160051c820191505b81811015620003d157828155600101620003bc565b5050505b505050565b81516001600160401b03811115620003f657620003f662000335565b6200040e816200040784546200034b565b8462000387565b602080601f8311600181146200044657600084156200042d5750858301515b600019600386901b1c1916600185901b178555620003d1565b600085815260208120601f198616915b82811015620004775788860151825594840194600190910190840162000456565b5085821015620004965787850151600019600388901b60f8161c191681555b5050505050600190811b01905550565b60006020808385031215620004ba57600080fd5b82516001600160401b0380821115620004d257600080fd5b818501915085601f830112620004e757600080fd5b815181811115620004fc57620004fc62000335565b604051601f8201601f19908116603f0116810190838211818310171562000527576200052762000335565b8160405282815288868487010111156200054057600080fd5b600093505b8284101562000564578484018601518185018701529285019262000545565b600086848301015280965050505050505092915050565b61235b806200058b6000396000f3fe6080604052600436106102875760003560e01c806370a082311161015a578063b8704277116100c1578063d5abeb011161007a578063d5abeb0114610771578063da3ef23f14610787578063dc33e681146107a7578063e985e9c5146107c7578063f2c4ce1e146107e7578063f2fde38b1461080757600080fd5b8063b8704277146106af578063b88d4fde146106dc578063c6682862146106ef578063c698dd0d14610704578063c87b56dd14610731578063d0c622721461075157600080fd5b80638854b70b116101135780638854b70b146106135780638da5cb5b14610629578063940cd05b1461064757806395d89b41146106675780639fb17e341461067c578063a22cb4651461068f57600080fd5b806370a0823114610548578063715018a61461056857806380eae5781461057d5780638325bc621461059d57806383a076be146105d3578063840bdefb146105f357600080fd5b80632a97efcb116101fe57806355f804b3116101b757806355f804b3146104a35780635c975abb146104c3578063613cb469146104dd5780636352211e146104f35780636c0360eb146105135780636c8b88651461052857600080fd5b80632a97efcb146104115780633ccfd60b1461043157806341f434341461043957806342842e0e1461045b5780634ae6157d1461046e578063518302271461048457600080fd5b8063081c8c4411610250578063081c8c4414610378578063095ea7b31461038d578063149835a0146103a057806318160ddd146103c05780631dc233f4146103de57806323b872dd146103fe57600080fd5b8062a860b01461028c57806301ffc9a7146102cc57806302329a29146102fc57806306fdde031461031e578063081812fc14610340575b600080fd5b34801561029857600080fd5b506102b96102a7366004611d3c565b60126020526000908152604090205481565b6040519081526020015b60405180910390f35b3480156102d857600080fd5b506102ec6102e7366004611d6d565b610827565b60405190151581526020016102c3565b34801561030857600080fd5b5061031c610317366004611d98565b610879565b005b34801561032a57600080fd5b50610333610894565b6040516102c39190611e05565b34801561034c57600080fd5b5061036061035b366004611e18565b610926565b6040516001600160a01b0390911681526020016102c3565b34801561038457600080fd5b5061033361096a565b61031c61039b366004611e31565b6109f8565b3480156103ac57600080fd5b5061031c6103bb366004611e18565b610a11565b3480156103cc57600080fd5b506102b9600154600054036000190190565b3480156103ea57600080fd5b506011546102ec9062010000900460ff1681565b61031c61040c366004611e5b565b610a1e565b34801561041d57600080fd5b5061031c61042c366004611e18565b610a49565b61031c610a56565b34801561044557600080fd5b506103606daaeb6d7670e522a718067333cd4e81565b61031c610469366004611e5b565b610ac8565b34801561047a57600080fd5b506102b9600f5481565b34801561049057600080fd5b506011546102ec90610100900460ff1681565b3480156104af57600080fd5b5061031c6104be366004611f23565b610aed565b3480156104cf57600080fd5b506011546102ec9060ff1681565b3480156104e957600080fd5b506102b9600d5481565b3480156104ff57600080fd5b5061036061050e366004611e18565b610b05565b34801561051f57600080fd5b50610333610b10565b34801561053457600080fd5b5061031c610543366004611d98565b610b1d565b34801561055457600080fd5b506102b9610563366004611d3c565b610b41565b34801561057457600080fd5b5061031c610b90565b34801561058957600080fd5b5061031c610598366004611e18565b610ba2565b3480156105a957600080fd5b506102b96105b8366004611d3c565b6001600160a01b031660009081526014602052604090205490565b3480156105df57600080fd5b5061031c6105ee366004611f6c565b610baf565b3480156105ff57600080fd5b5061031c61060e366004611e18565b610c34565b34801561061f57600080fd5b506102b960105481565b34801561063557600080fd5b506008546001600160a01b0316610360565b34801561065357600080fd5b5061031c610662366004611d98565b610e3b565b34801561067357600080fd5b50610333610e5d565b61031c61068a366004611e18565b610e6c565b34801561069b57600080fd5b5061031c6106aa366004611f98565b611106565b3480156106bb57600080fd5b506102b96106ca366004611d3c565b60136020526000908152604090205481565b61031c6106ea366004611fcf565b61111a565b3480156106fb57600080fd5b50610333611147565b34801561071057600080fd5b506102b961071f366004611d3c565b60146020526000908152604090205481565b34801561073d57600080fd5b5061033361074c366004611e18565b611154565b34801561075d57600080fd5b5061031c61076c366004611e18565b6112c9565b34801561077d57600080fd5b506102b9600e5481565b34801561079357600080fd5b5061031c6107a2366004611f23565b6112d6565b3480156107b357600080fd5b506102b96107c2366004611d3c565b6112ea565b3480156107d357600080fd5b506102ec6107e236600461204b565b6112f5565b3480156107f357600080fd5b5061031c610802366004611f23565b611323565b34801561081357600080fd5b5061031c610822366004611d3c565b611337565b60006301ffc9a760e01b6001600160e01b03198316148061085857506380ac58cd60e01b6001600160e01b03198316145b806108735750635b5e139f60e01b6001600160e01b03198316145b92915050565b6108816113ad565b6011805460ff1916911515919091179055565b6060600280546108a390612075565b80601f01602080910402602001604051908101604052809291908181526020018280546108cf90612075565b801561091c5780601f106108f15761010080835404028352916020019161091c565b820191906000526020600020905b8154815290600101906020018083116108ff57829003601f168201915b5050505050905090565b600061093182611407565b61094e576040516333d1c03960e21b815260040160405180910390fd5b506000908152600660205260409020546001600160a01b031690565b600c805461097790612075565b80601f01602080910402602001604051908101604052809291908181526020018280546109a390612075565b80156109f05780601f106109c5576101008083540402835291602001916109f0565b820191906000526020600020905b8154815290600101906020018083116109d357829003601f168201915b505050505081565b81610a028161143c565b610a0c83836114f5565b505050565b610a196113ad565b600e55565b826001600160a01b0381163314610a3857610a383361143c565b610a43848484611595565b50505050565b610a516113ad565b601055565b610a5e6113ad565b610a6661172e565b604051600090339047908381818185875af1925050503d8060008114610aa8576040519150601f19603f3d011682016040523d82523d6000602084013e610aad565b606091505b5050905080610abb57600080fd5b50610ac66001600955565b565b826001600160a01b0381163314610ae257610ae23361143c565b610a43848484611787565b610af56113ad565b600a610b0182826120f5565b5050565b6000610873826117a2565b600a805461097790612075565b610b256113ad565b60118054911515620100000262ff000019909216919091179055565b60006001600160a01b038216610b6a576040516323d3ad8160e21b815260040160405180910390fd5b506001600160a01b031660009081526005602052604090205467ffffffffffffffff1690565b610b986113ad565b610ac66000611811565b610baa6113ad565b600d55565b610bb76113ad565b610bbf61172e565b6000610bd2600154600054036000190190565b600e54909150610be284836121cb565b1115610c1f5760405162461bcd60e51b815260206004820152600760248201526614dbdb191bdd5d60ca1b60448201526064015b60405180910390fd5b610c298284611863565b50610b016001600955565b336000908152601460205260408120549003610ca95760405162461bcd60e51b815260206004820152602e60248201527f5573657220686173206e6f74206d696e746564206d6178204e46547320696e2060448201526d70726576696f757320706861736560901b6064820152608401610c16565b33600090815260146020526040902054421015610d125760405162461bcd60e51b815260206004820152602160248201527f5370656369616c204e46542063616e6e6f7420626520636c61696d65642079656044820152601d60fa1b6064820152608401610c16565b6000610d25600154600054036000190190565b905060008211610d775760405162461bcd60e51b815260206004820152601b60248201527f6e65656420746f206d696e74206174206c656173742031204e465400000000006044820152606401610c16565b600e54610d8483836121cb565b1115610dbf5760405162461bcd60e51b815260206004820152600a60248201526915d94814dbdb191bdd5d60b21b6044820152606401610c16565b601054600f54610dcf91906121cb565b82610dd93361187d565b610de391906121cb565b1115610e315760405162461bcd60e51b815260206004820152601d60248201527f204d6178204e465473205065722057616c6c65742065786365656465640000006044820152606401610c16565b610b013383611863565b610e436113ad565b601180549115156101000261ff0019909216919091179055565b6060600380546108a390612075565b610e7461172e565b60115460ff1615610ec75760405162461bcd60e51b815260206004820152601760248201527f6f6f707320636f6e7472616374206973207061757365640000000000000000006044820152606401610c16565b60115462010000900460ff16610f1f5760405162461bcd60e51b815260206004820152601760248201527f53616c65204861736e27742073746172746564207965740000000000000000006044820152606401610c16565b6000610f32600154600054036000190190565b905060008211610f845760405162461bcd60e51b815260206004820152601b60248201527f6e65656420746f206d696e74206174206c656173742031204e465400000000006044820152606401610c16565b600e54610f9183836121cb565b1115610fcc5760405162461bcd60e51b815260206004820152600a60248201526915d94814dbdb191bdd5d60b21b6044820152606401610c16565b600f5482610fd93361187d565b610fe391906121cb565b11156110315760405162461bcd60e51b815260206004820152601d60248201527f204d6178204e465473205065722057616c6c65742065786365656465640000006044820152606401610c16565b81600d5461103f91906121de565b3410156110835760405162461bcd60e51b8152602060048201526012602482015271696e73756666696369656e742066756e647360701b6044820152606401610c16565b61108d3383611863565b3360009081526012602052604081208054916110a8836121f5565b9091555050600f5433600090815260126020526040902054036110f85733600090815260136020526040902042908190556110e7906301e133806121cb565b336000908152601460205260409020555b506111036001600955565b50565b816111108161143c565b610a0c83836118a6565b836001600160a01b0381163314611134576111343361143c565b61114085858585611912565b5050505050565b600b805461097790612075565b606061115f82611407565b6111c45760405162461bcd60e51b815260206004820152603060248201527f455243373231414d657461646174613a2055524920717565727920666f72206e60448201526f37b732bc34b9ba32b73a103a37b5b2b760811b6064820152608401610c16565b601154610100900460ff16151560000361126a57600c80546111e590612075565b80601f016020809104026020016040519081016040528092919081815260200182805461121190612075565b801561125e5780601f106112335761010080835404028352916020019161125e565b820191906000526020600020905b81548152906001019060200180831161124157829003601f168201915b50505050509050919050565b6000611274611956565b9050600081511161129457604051806020016040528060008152506112c2565b8061129e84611965565b600b6040516020016112b29392919061220e565b6040516020818303038152906040525b9392505050565b6112d16113ad565b600f55565b6112de6113ad565b600b610b0182826120f5565b60006108738261187d565b6001600160a01b03918216600090815260076020908152604080832093909416825291909152205460ff1690565b61132b6113ad565b600c610b0182826120f5565b61133f6113ad565b6001600160a01b0381166113a45760405162461bcd60e51b815260206004820152602660248201527f4f776e61626c653a206e6577206f776e657220697320746865207a65726f206160448201526564647265737360d01b6064820152608401610c16565b61110381611811565b6008546001600160a01b03163314610ac65760405162461bcd60e51b815260206004820181905260248201527f4f776e61626c653a2063616c6c6572206973206e6f7420746865206f776e65726044820152606401610c16565b60008160011115801561141b575060005482105b8015610873575050600090815260046020526040902054600160e01b161590565b6daaeb6d7670e522a718067333cd4e3b1561110357604051633185c44d60e21b81523060048201526001600160a01b03821660248201526daaeb6d7670e522a718067333cd4e9063c617113490604401602060405180830381865afa1580156114a9573d6000803e3d6000fd5b505050506040513d601f19601f820116820180604052508101906114cd91906122ae565b61110357604051633b79c77360e21b81526001600160a01b0382166004820152602401610c16565b600061150082610b05565b9050336001600160a01b038216146115395761151c81336112f5565b611539576040516367d9dca160e11b815260040160405180910390fd5b60008281526006602052604080822080546001600160a01b0319166001600160a01b0387811691821790925591518593918516917f8c5be1e5ebec7d5bd14f71427d1e84f3dd0314c0f7b2291e5b200ac8c7c3b92591a4505050565b60006115a0826117a2565b9050836001600160a01b0316816001600160a01b0316146115d35760405162a1148160e81b815260040160405180910390fd5b60008281526006602052604090208054338082146001600160a01b038816909114176116205761160386336112f5565b61162057604051632ce44b5f60e11b815260040160405180910390fd5b6001600160a01b03851661164757604051633a954ecd60e21b815260040160405180910390fd5b801561165257600082555b6001600160a01b038681166000908152600560205260408082208054600019019055918716808252919020805460010190554260a01b17600160e11b17600085815260046020526040812091909155600160e11b841690036116e4576001840160008181526004602052604081205490036116e25760005481146116e25760008181526004602052604090208490555b505b83856001600160a01b0316876001600160a01b03167fddf252ad1be2c89b69c2b068fc378daa952ba7f163c4a11628f55a4df523b3ef60405160405180910390a45b505050505050565b6002600954036117805760405162461bcd60e51b815260206004820152601f60248201527f5265656e7472616e637947756172643a207265656e7472616e742063616c6c006044820152606401610c16565b6002600955565b610a0c8383836040518060200160405280600081525061111a565b600081806001116117f8576000548110156117f85760008181526004602052604081205490600160e01b821690036117f6575b806000036112c25750600019016000818152600460205260409020546117d5565b505b604051636f96cda160e11b815260040160405180910390fd5b600880546001600160a01b038381166001600160a01b0319831681179093556040519116919082907f8be0079c531659141344cd1fd0a4f28419497f9722a3daafe3b4186f6b6457e090600090a35050565b610b018282604051806020016040528060008152506119f8565b6001600160a01b03166000908152600560205260409081902054901c67ffffffffffffffff1690565b3360008181526007602090815260408083206001600160a01b03871680855290835292819020805460ff191686151590811790915590519081529192917f17307eab39ab6107e8899845ad3d59bd9653f200f220920489ca2b5937696c31910160405180910390a35050565b61191d848484610a1e565b6001600160a01b0383163b15610a435761193984848484611a5e565b610a43576040516368d2bf6b60e11b815260040160405180910390fd5b6060600a80546108a390612075565b6060600061197283611b4a565b600101905060008167ffffffffffffffff81111561199257611992611e97565b6040519080825280601f01601f1916602001820160405280156119bc576020820181803683370190505b5090508181016020015b600019016f181899199a1a9b1b9c1cb0b131b232b360811b600a86061a8153600a85049450846119c657509392505050565b611a028383611c22565b6001600160a01b0383163b15610a0c576000548281035b611a2c6000868380600101945086611a5e565b611a49576040516368d2bf6b60e11b815260040160405180910390fd5b818110611a1957816000541461114057600080fd5b604051630a85bd0160e11b81526000906001600160a01b0385169063150b7a0290611a939033908990889088906004016122cb565b6020604051808303816000875af1925050508015611ace575060408051601f3d908101601f19168201909252611acb91810190612308565b60015b611b2c573d808015611afc576040519150601f19603f3d011682016040523d82523d6000602084013e611b01565b606091505b508051600003611b24576040516368d2bf6b60e11b815260040160405180910390fd5b805181602001fd5b6001600160e01b031916630a85bd0160e11b1490505b949350505050565b60008072184f03e93ff9f4daa797ed6e38ed64bf6a1f0160401b8310611b895772184f03e93ff9f4daa797ed6e38ed64bf6a1f0160401b830492506040015b6d04ee2d6d415b85acef81000000008310611bb5576d04ee2d6d415b85acef8100000000830492506020015b662386f26fc100008310611bd357662386f26fc10000830492506010015b6305f5e1008310611beb576305f5e100830492506008015b6127108310611bff57612710830492506004015b60648310611c11576064830492506002015b600a83106108735760010192915050565b6000805490829003611c475760405163b562e8dd60e01b815260040160405180910390fd5b6001600160a01b03831660008181526005602090815260408083208054680100000000000000018802019055848352600490915281206001851460e11b4260a01b178317905582840190839083907fddf252ad1be2c89b69c2b068fc378daa952ba7f163c4a11628f55a4df523b3ef8180a4600183015b818114611cf657808360007fddf252ad1be2c89b69c2b068fc378daa952ba7f163c4a11628f55a4df523b3ef600080a4600101611cbe565b5081600003611d1757604051622e076360e81b815260040160405180910390fd5b60005550505050565b80356001600160a01b0381168114611d3757600080fd5b919050565b600060208284031215611d4e57600080fd5b6112c282611d20565b6001600160e01b03198116811461110357600080fd5b600060208284031215611d7f57600080fd5b81356112c281611d57565b801515811461110357600080fd5b600060208284031215611daa57600080fd5b81356112c281611d8a565b60005b83811015611dd0578181015183820152602001611db8565b50506000910152565b60008151808452611df1816020860160208601611db5565b601f01601f19169290920160200192915050565b6020815260006112c26020830184611dd9565b600060208284031215611e2a57600080fd5b5035919050565b60008060408385031215611e4457600080fd5b611e4d83611d20565b946020939093013593505050565b600080600060608486031215611e7057600080fd5b611e7984611d20565b9250611e8760208501611d20565b9150604084013590509250925092565b634e487b7160e01b600052604160045260246000fd5b600067ffffffffffffffff80841115611ec857611ec8611e97565b604051601f8501601f19908116603f01168101908282118183101715611ef057611ef0611e97565b81604052809350858152868686011115611f0957600080fd5b858560208301376000602087830101525050509392505050565b600060208284031215611f3557600080fd5b813567ffffffffffffffff811115611f4c57600080fd5b8201601f81018413611f5d57600080fd5b611b4284823560208401611ead565b60008060408385031215611f7f57600080fd5b82359150611f8f60208401611d20565b90509250929050565b60008060408385031215611fab57600080fd5b611fb483611d20565b91506020830135611fc481611d8a565b809150509250929050565b60008060008060808587031215611fe557600080fd5b611fee85611d20565b9350611ffc60208601611d20565b925060408501359150606085013567ffffffffffffffff81111561201f57600080fd5b8501601f8101871361203057600080fd5b61203f87823560208401611ead565b91505092959194509250565b6000806040838503121561205e57600080fd5b61206783611d20565b9150611f8f60208401611d20565b600181811c9082168061208957607f821691505b6020821081036120a957634e487b7160e01b600052602260045260246000fd5b50919050565b601f821115610a0c57600081815260208120601f850160051c810160208610156120d65750805b601f850160051c820191505b81811015611726578281556001016120e2565b815167ffffffffffffffff81111561210f5761210f611e97565b6121238161211d8454612075565b846120af565b602080601f83116001811461215857600084156121405750858301515b600019600386901b1c1916600185901b178555611726565b600085815260208120601f198616915b8281101561218757888601518255948401946001909101908401612168565b50858210156121a55787850151600019600388901b60f8161c191681555b5050505050600190811b01905550565b634e487b7160e01b600052601160045260246000fd5b80820180821115610873576108736121b5565b8082028115828204841417610873576108736121b5565b600060018201612207576122076121b5565b5060010190565b6000845160206122218285838a01611db5565b8551918401916122348184848a01611db5565b855492019160009061224581612075565b6001828116801561225d57600181146122725761229e565b60ff198416875282151583028701945061229e565b896000528560002060005b848110156122965781548982015290830190870161227d565b505082870194505b50929a9950505050505050505050565b6000602082840312156122c057600080fd5b81516112c281611d8a565b6001600160a01b03858116825284166020820152604081018390526080606082018190526000906122fe90830184611dd9565b9695505050505050565b60006020828403121561231a57600080fd5b81516112c281611d5756fea2646970667358221220ac2841eb19e31aeb254479c4ae44ee191696fc188b973c2477c0344ee3b5ea0d64736f6c63430008110033",
  "linkReferences": {},
  "deployedLinkReferences": {}
}